:100000000C9446000C9465000C9465000C946500FB
:100010000C9465000C9465000C9465000C946500CC
:100020000C9465000C9465000C9465000C946500BC
:100030000C9465000C940C010C9465000C94650004
:100040000C9465000C9465000C9465000C9465009C
:100050000C9465000C9465000C9465000C9465008C
:100060000C9465000C9465000C9465000C9465007C
:100070000C9465000C9465000C9465000C9465006C
:100080000C9465000C9465000C94650011241FBE4F
:10009000CFEFD0E4DEBFCDBF11E0A0E0B1E0EEE8ED
:1000A000F6E000E00BBF02C007900D92A231B1074D
:1000B000D9F721E0A2E1B1E001C01D92A832B20758
:1000C000E1F70E9405030C9445030C940000CF93C4
:1000D000DF9300D01F92CDB7DEB789837B836A831D
:1000E00089818A3031F48A819B81BC018DE00E9434
:1000F000670080EC90E0FC018081882F90E08072A6
:100100009927892BB1F386EC90E02981FC012083AB
:1001100080E090E00F900F900F90DF91CF910895C5
:10012000CF93DF9300D000D0CDB7DEB769837A8359
:100130008B839C8389819A81AB81BC8180930E01E2
:1001400090930F01A0931001B093110180910E01C3
:1001500090910F01A0911001B091110180931301B2
:1001600090931401A0931501B093160100000F9015
:100170000F900F900F90DF91CF910895CF93DF9361
:10018000CDB7DEB781E890E02BE0FC01208388E862
:1001900090E02DE730E0FC01318320838FE690E092
:1001A00022E0FC01208384E890E0FC0111821082AF
:1001B00080910E0190910F01A0911001B091110159
:1001C0008093130190931401A0931501B09316012D
:1001D0008FE590E02FE530E0F90120812068FC01F7
:1001E00020830000DF91CF910895CF93DF93CDB7A7
:1001F000DEB781E890E0FC0110820000DF91CF9132
:100200000895CF93DF93CDB7DEB781E080931201DD
:100210000000DF91CF9108951F920F9200905F0030
:100220000F92112400905B000F922F933F934F93F6
:100230005F936F937F938F939F93AF93BF93EF934E
:10024000FF93CF93DF93CDB7DEB7809113019091E9
:100250001401A0911501B09116010197A109B109EE
:100260008093130190931401A0931501B09316018C
:100270008091130190911401A0911501B091160184
:10028000892B8A2B8B2B91F40E94010180910E0106
:1002900090910F01A0911001B09111018093130171
:1002A00090931401A0931501B09316010000DF9103
:1002B000CF91FF91EF91BF91AF919F918F917F91DE
:1002C0006F915F914F913F912F910F9000925B0042
:1002D0000F9000925F000F901F901895CF93DF93BF
:1002E000CDB7DEB78091260190912701813091052D
:1002F00081F08130910530F08230910589F00397CB
:10030000B1F01CC081E090E090932701809326011A
:100310001AC082E090E0909327018093260113C0D9
:1003200083E090E090932701809326010CC081E048
:1003300090E0909327018093260105C01092270139
:1003400010922601000080912601909127018130B2
:10035000910561F08130910530F08230910551F0C6
:10036000039761F00FC0109217010CC081E08093D9
:10037000170108C082E08093170104C083E08093D6
:10038000170100000000DF91CF910895CF93DF9314
:10039000CDB7DEB780912401909125018130910580
:1003A00069F08130910518F0029779F015C081E06D
:1003B00090E0909325018093240113C082E090E0A7
:1003C00090932501809324010CC081E090E09093EC
:1003D00025018093240105C010922501109224016B
:1003E000000080912401909125018130910531F028
:1003F0008130910550F0029729F008C088E0809381
:10040000180104C01092180101C000000000DF9123
:10041000CF910895CF93DF93CDB7DEB780912001C0
:10042000909121018130910569F08130910518F09A
:10043000029701F137C081E090E090932101809311
:10044000200135C080E290E0FC018081882F90E09F
:1004500084709927892B39F482E090E090932101F0
:100460008093200124C081E090E09093210180934B
:1004700020011DC080E290E0FC018081882F90E087
:1004800084709927892B39F482E090E090932101C0
:10049000809320010CC081E090E090932101809333
:1004A000200105C0109221011092200100008091CE
:1004B0002001909121018130910531F08130910529
:1004C00078F0029731F00DC010921E0110921D01BC
:1004D00008C081E090E090931E0180931D0101C04F
:1004E00000000000DF91CF910895CF93DF93CDB747
:1004F000DEB78091220190912301009719F00197B6
:1005000041F00EC081E090E090932301809322019E
:100510000CC081E090E0909323018093220105C0FC
:1005200010922301109222010000809122019091EB
:100530002301009719F0019729F063C010921F0161
:1005400000005FC08091190190911A01039731F466
:100550000E946E0110921A011092190180911B01E4
:1005600090911C010A9731F40E94C60110921C015F
:1005700010921B0180911701813021F481E080935A
:100580001F010FC080911701823021F482E0809317
:100590001F0107C080911701833019F484E0809314
:1005A0001F0190911F0180911801892B80931F01D9
:1005B00080911D0190911E01892B31F480911F01C2
:1005C0008F7080931F010BC080911D0190911E01BF
:1005D000019729F480911F01806180931F01809110
:1005E000190190911A01019690931A0180931901B3
:1005F00080911B0190911C01019690931C018093A6
:100600001B010000DF91CF910895CF93DF93CDB709
:10061000DEB781E290E0FC01108282E290E02FEFF1
:10062000FC01208384E290E02FEFFC01208385E22F
:1006300090E0FC0110821092270110922601109286
:100640002501109224011092230110922201109290
:1006500021011092200164E670E080E090E00E94A9
:1006600090000E94BE000E940A020E94750285E26C
:1006700090E020911F01FC01208300008091120175
:0E0680008823E1F310921201EECFF894FFCF21
:10068E0000000002000000006700000000000100F2
:02069E0000005A
:00000001FF
