:100000000C946A000C9489000C9489000C9489006B
:100010000C9489000C9489000C9489000C9489003C
:100020000C9489000C9489000C9489000C9489002C
:100030000C9489000C9430010C9489000C94890074
:100040000C9489000C9489000C9489000C9489000C
:100050000C9489000C9489000C9489000C948900FC
:100060000C9489000C9489000C9489000C948900EC
:100070000C9489000C9489000C9489000C948900DC
:100080000C9489000C9489000C9489006602140475
:100090003E03EA04C00596066C0742081809150AD3
:1000A0001C0A6B0ABB0A0A0B5A0BDB0B5C0CDD0C3F
:1000B0008E0D660E3C0F1210E810BE1194126A13DA
:1000C000401417163D155015631576158915AD1595
:1000D000D115F41511241FBECFEFD0E4DEBFCDBF84
:1000E00011E0A0E0B1E0EAE8F0E300E00BBF02C0FD
:1000F00007900D92AE31B107D9F721E0AEE1B1E042
:1001000001C01D92A435B207E1F70E9459160C9464
:1001100043180C940000CF93DF9300D01F92CDB70B
:10012000DEB789837B836A8389818A3031F48A814F
:100130009B81BC018DE00E948B0080EC90E0FC0173
:100140008081882F90E080729927892BB1F386EC0B
:1001500090E02981FC01208380E090E00F900F90D7
:100160000F90DF91CF910895CF93DF9300D000D00F
:10017000CDB7DEB769837A838B839C8389819A812B
:10018000AB81BC8180930E0190930F01A09310016D
:10019000B093110180910E0190910F01A091100177
:1001A000B091110180931F0190932001A093210130
:1001B000B093220100000F900F900F900F90DF91ED
:1001C000CF910895CF93DF93CDB7DEB781E890E06C
:1001D0002BE0FC01208388E890E02DE730E0FC0173
:1001E000318320838FE690E022E0FC01208384E8C5
:1001F00090E0FC011182108280910E0190910F011C
:10020000A0911001B091110180931F0190932001E2
:10021000A0932101B09322018FE590E02FE530E01B
:10022000F90120812068FC0120830000DF91CF913B
:100230000895CF93DF93CDB7DEB781E890E0FC015E
:1002400010820000DF91CF910895CF93DF93CDB757
:10025000DEB781E080931E010000DF91CF91089509
:100260001F920F9200905F000F92112400905B008C
:100270000F922F933F934F935F936F937F938F933F
:100280009F93AF93BF93EF93FF93CF93DF93CDB73C
:10029000DEB780911F0190912001A0912101B091C2
:1002A00022010197A109B10980931F0190932001B8
:1002B000A0932101B093220180911F019091200110
:1002C000A0912101B0912201892B8A2B8B2B91F4D3
:1002D0000E94250180910E0190910F01A0911001C3
:1002E000B091110180931F0190932001A0932101EF
:1002F000B09322010000DF91CF91FF91EF91BF9168
:10030000AF919F918F917F916F915F914F913F91AD
:100310002F910F9000925B000F9000925F000F9062
:100320001F901895CF93DF93CDB7DEB72C970FB6FC
:10033000F894DEBF0FBECDBF6D837E838F83988719
:1003400029873A874B875C878D819E81AF81B885ED
:1003500029853A854B855C85BC01CD010E94181822
:10036000DC01CB0189839A83AB83BC8389819A8129
:10037000AB81BC81892B8A2B8B2B29F489859A85AB
:10038000AB85BC8511C089859A85AB85BC858D837D
:100390009E83AF83B88789819A81AB81BC8189872D
:1003A0009A87AB87BC87D0CFBC01CD012C960FB606
:1003B000F894DEBF0FBECDBFDF91CF910895CF93EC
:1003C000DF93CDB7DEB78AE790E02AE730E0F901A6
:1003D0002081206EFC0120830000DF91CF910895E1
:1003E000CF93DF931F92CDB7DEB789838CE790E080
:1003F0002981283028F02CE730E0F901208101C064
:100400002981FC0120831092230106C00000809105
:1004100023018F5F80932301809123018F30B0F3FC
:1004200000000F90DF91CF910895CF93DF9300D01C
:10043000CDB7DEB79A83898389819A81892B19F494
:100440001A82198203C01A821982000089819A8156
:10045000892BC9F480E00E94F00188E790E0FC015C
:1004600080819181909351018093500181E00E949D
:10047000F00188E790E0FC01808191819093530125
:1004800080935201000089819A810F900F90DF9133
:10049000CF910895CF93DF9300D0CDB7DEB79A8385
:1004A000898389819A81092E000CAA0BBB0B40E03D
:1004B00050E028E030E0841B950B2817390708F43A
:1004C0008BC78A5B9F4FFC010C943A1880915001B6
:1004D0009091510182319240C0F0809150019091F1
:1004E00051018B33924088F48091520190915301D5
:1004F0008231924050F080915201909153018B33A0
:10050000924018F41A821982B7C0809150019091DC
:1005100051018B33924098F0809152019091530198
:100520008231924060F080915201909153018B335F
:10053000924028F481E090E09A8389839DC0809165
:100540005001909151018231924098F48091520172
:10055000909153018231924060F0809152019091CC
:1005600053018B33924028F482E090E09A83898390
:1005700083C080915201909153018B33924098F047
:1005800080915001909151018231924060F08091B0
:100590005001909151018B33924028F483E090E018
:1005A0009A83898369C0809152019091530182316D
:1005B000924098F480915001909151018231924083
:1005C00060F080915001909151018B33924028F45A
:1005D00084E090E09A8389834FC08091500190918C
:1005E00051018B33924060F0809152019091530100
:1005F0008231924028F485E090E09A8389833CC060
:1006000080915001909151018B33924060F0809124
:100610005201909153018B33924028F086E090E094
:100620009A83898329C08091500190915101823130
:10063000924060F480915201909153018231924036
:1006400028F487E090E09A83898316C08091500156
:10065000909151018231924008F0C1C680915201BF
:10066000909153018B33924008F4B9C688E090E032
:100670009A8389830C94EF090C94EF0980915001BF
:100680009091510182319240C0F08091500190913F
:1006900051018B33924088F4809152019091530123
:1006A0008231924050F080915201909153018B33EE
:1006B000924018F41A821982B6C08091500190912C
:1006C00051018B33924098F08091520190915301E7
:1006D0008231924060F080915201909153018B33AE
:1006E000924028F481E090E09A8389839CC08091B5
:1006F0005001909151018231924098F480915201C1
:10070000909153018231924060F08091520190911A
:1007100053018B33924028F482E090E09A838983DE
:1007200082C080915201909153018B33924098F096
:1007300080915001909151018231924060F08091FE
:100740005001909151018B33924028F483E090E066
:100750009A83898368C080915201909153018231BC
:10076000924098F4809150019091510182319240D1
:1007700060F080915001909151018B33924028F4A8
:1007800084E090E09A8389834EC0809150019091DB
:1007900051018B33924060F080915201909153014E
:1007A0008231924028F485E090E09A8389833BC0AF
:1007B00080915001909151018B33924060F0809173
:1007C0005201909153018B33924028F086E090E0E3
:1007D0009A83898328C08091500190915101823180
:1007E000924060F480915201909153018231924085
:1007F00028F487E090E09A83898315C080915001A6
:10080000909151018231924008F0EBC580915201E4
:10081000909153018B33924008F4E3C588E090E057
:100820009A838983DEC5DDC5809150019091510185
:1008300082319240C0F080915001909151018B33F0
:10084000924088F4809152019091530182319240FC
:1008500050F080915201909153018B33924018F4E3
:100860001A821982B6C080915001909151018B3348
:10087000924098F0809152019091530182319240C0
:1008800060F080915201909153018B33924028F493
:1008900081E090E09A8389839CC08091500190917F
:1008A00051018231924098F480915201909153010C
:1008B0008231924060F080915201909153018B33CC
:1008C000924028F482E090E09A83898382C08091EC
:1008D0005201909153018B33924098F080915001D6
:1008E000909151018231924060F08091500190913D
:1008F00051018B33924028F483E090E09A838983FE
:1009000068C080915201909153018231924098F4D5
:1009100080915001909151018231924060F080911C
:100920005001909151018B33924028F484E090E083
:100930009A8389834EC080915001909151018B33ED
:10094000924060F080915201909153018231924027
:1009500028F485E090E09A8389833BC08091500120
:10096000909151018B33924060F0809152019091AF
:1009700053018B33924028F086E090E09A8389837C
:1009800028C080915001909151018231924060F4D1
:1009900080915201909153018231924028F487E076
:1009A00090E09A83898315C0809150019091510104
:1009B0008231924008F017C5809152019091530105
:1009C0008B33924008F40FC588E090E09A838983C6
:1009D0000AC509C580915001909151018231924020
:1009E000C0F080915001909151018B33924088F476
:1009F00080915201909153018231924050F0809148
:100A00005201909153018B33924018F41A8219824B
:100A1000B6C080915001909151018B33924098F073
:100A200080915201909153018231924060F0809107
:100A30005201909153018B33924028F481E090E071
:100A40009A8389839CC08091500190915101823199
:100A5000924098F4809152019091530182319240DA
:100A600060F080915201909153018B33924028F4B1
:100A700082E090E09A83898382C0809152019091B4
:100A800053018B33924098F0809150019091510125
:100A90008231924060F080915001909151018B33EE
:100AA000924028F483E090E09A83898368C0809123
:100AB0005201909153018231924098F480915001FB
:100AC000909151018231924060F08091500190915B
:100AD00051018B33924028F484E090E09A8389831B
:100AE0004EC080915001909151018B33924060F043
:100AF00080915201909153018231924028F485E017
:100B000090E09A8389833BC080915001909151017C
:100B10008B33924060F080915201909153018B335E
:100B2000924028F086E090E09A83898328C08091E3
:100B30005001909151018231924060F480915201B4
:100B4000909153018231924028F487E090E09A839B
:100B5000898315C08091500190915101823192405A
:100B600008F043C480915201909153018B3392401D
:100B700008F43BC488E090E09A83898336C435C486
:100B8000809150019091510182319240C0F080914A
:100B90005001909151018B33924088F48091520121
:100BA000909153018231924050F080915201909186
:100BB00053018B33924018F41A821982B6C0809187
:100BC0005001909151018B33924098F080915201E5
:100BD000909153018231924060F080915201909146
:100BE00053018B33924028F481E090E09A8389830B
:100BF0009CC080915001909151018231924098F4B3
:100C000080915201909153018231924060F0809125
:100C10005201909153018B33924028F482E090E08E
:100C20009A83898382C080915201909153018B33C2
:100C3000924098F080915001909151018231924000
:100C400060F080915001909151018B33924028F4D3
:100C500083E090E09A83898368C0809152019091EB
:100C600053018231924098F480915001909151014A
:100C70008231924060F080915001909151018B330C
:100C8000924028F484E090E09A8389834EC080915A
:100C90005001909151018B33924060F0809152014C
:100CA000909153018231924028F485E090E09A833C
:100CB00089833BC080915001909151018B339240C8
:100CC00060F080915201909153018B33924028F053
:100CD00086E090E09A83898328C0809150019091AA
:100CE00051018231924060F4809152019091530100
:100CF0008231924028F487E090E09A83898315C07E
:100D000080915001909151018231924008F06FC35F
:100D100080915201909153018B33924008F467C344
:100D200088E090E09A83898362C361C38091500117
:100D30009091510182319240C0F080915001909188
:100D400051018B33924088F480915201909153016C
:100D50008231924050F080915201909153018B3337
:100D6000924018F41A821982B6C080915001909175
:100D700051018B33924098F0809152019091530130
:100D80008231924060F080915201909153018B33F7
:100D9000924028F481E090E09A8389839CC08091FE
:100DA0005001909151018231924098F4809152010A
:100DB000909153018231924060F080915201909164
:100DC00053018B33924028F482E090E09A83898328
:100DD00082C080915201909153018B33924098F0E0
:100DE00080915001909151018231924060F0809148
:100DF0005001909151018B33924028F483E090E0B0
:100E00009A83898368C08091520190915301823105
:100E1000924098F48091500190915101823192401A
:100E200060F080915001909151018B33924028F4F1
:100E300084E090E09A8389834EC080915001909124
:100E400051018B33924060F0809152019091530197
:100E50008231924028F485E090E09A8389833BC0F8
:100E600080915001909151018B33924060F08091BC
:100E70005201909153018B33924028F086E090E02C
:100E80009A83898328C080915001909151018231C9
:100E9000924060F4809152019091530182319240CE
:100EA00028F487E090E09A83898315C080915001EF
:100EB000909151018231924008F09BC28091520181
:100EC000909153018B33924008F493C288E090E0F4
:100ED0009A8389838EC28DC2809150019091510175
:100EE00082319240C0F080915001909151018B333A
:100EF000924088F480915201909153018231924046
:100F000050F080915201909153018B33924018F42C
:100F10001A821982B6C080915001909151018B3391
:100F2000924098F080915201909153018231924009
:100F300060F080915201909153018B33924028F4DC
:100F400081E090E09A8389839CC0809150019091C8
:100F500051018231924098F4809152019091530155
:100F60008231924060F080915201909153018B3315
:100F7000924028F482E090E09A83898382C0809135
:100F80005201909153018B33924098F0809150011F
:100F9000909151018231924060F080915001909186
:100FA00051018B33924028F483E090E09A83898347
:100FB00068C080915201909153018231924098F41F
:100FC00080915001909151018231924060F0809166
:100FD0005001909151018B33924028F484E090E0CD
:100FE0009A8389834EC080915001909151018B3337
:100FF000924060F080915201909153018231924071
:1010000028F485E090E09A8389833BC08091500169
:10101000909151018B33924060F0809152019091F8
:1010200053018B33924028F086E090E09A838983C5
:1010300028C080915001909151018231924060F41A
:1010400080915201909153018231924028F487E0BF
:1010500090E09A83898315C080915001909151014D
:101060008231924008F0C7C18091520190915301A2
:101070008B33924008F4BFC188E090E09A83898363
:10108000BAC1B9C180915001909151018231924011
:10109000C0F080915001909151018B33924088F4BF
:1010A00080915201909153018231924050F0809191
:1010B0005201909153018B33924018F41A82198295
:1010C000B6C080915001909151018B33924098F0BD
:1010D00080915201909153018231924060F0809151
:1010E0005201909153018B33924028F481E090E0BB
:1010F0009A8389839CC080915001909151018231E3
:10110000924098F480915201909153018231924023
:1011100060F080915201909153018B33924028F4FA
:1011200082E090E09A83898382C0809152019091FD
:1011300053018B33924098F080915001909151016E
:101140008231924060F080915001909151018B3337
:10115000924028F483E090E09A83898368C080916C
:101160005201909153018231924098F48091500144
:10117000909151018231924060F0809150019091A4
:1011800051018B33924028F484E090E09A83898364
:101190004EC080915001909151018B33924060F08C
:1011A00080915201909153018231924028F485E060
:1011B00090E09A8389833BC08091500190915101C6
:1011C0008B33924060F080915201909153018B33A8
:1011D000924028F086E090E09A83898328C080912D
:1011E0005001909151018231924060F480915201FE
:1011F000909153018231924028F487E090E09A83E5
:10120000898315C0809150019091510182319240A3
:1012100008F0F3C080915201909153018B339240BA
:1012200008F4EBC088E090E09A838983E6C0E5C0CB
:10123000809150019091510182319240C0F0809193
:101240005001909151018B33924088F4809152016A
:10125000909153018231924050F0809152019091CF
:1012600053018B33924018F41A821982B4C08091D2
:101270005001909151018B33924098F0809152012E
:10128000909153018231924060F08091520190918F
:1012900053018B33924028F481E090E09A83898354
:1012A0009AC080915001909151018231924098F4FE
:1012B00080915201909153018231924060F080916F
:1012C0005201909153018B33924028F482E090E0D8
:1012D0009A83898380C080915201909153018B330E
:1012E000924098F08091500190915101823192404A
:1012F00060F080915001909151018B33924028F41D
:1013000083E090E09A83898366C080915201909136
:1013100053018231924098F4809150019091510193
:101320008231924060F080915001909151018B3355
:10133000924028F484E090E09A8389834CC08091A5
:101340005001909151018B33924060F08091520195
:10135000909153018231924028F485E090E09A8385
:10136000898339C080915001909151018B33924013
:1013700060F080915201909153018B33924028F09C
:1013800086E090E09A83898326C0809150019091F5
:1013900051018231924060F4809152019091530149
:1013A0008231924028F487E090E09A83898313C0C9
:1013B00080915001909151018231924000F58091CD
:1013C0005201909153018B339240C8F088E090E035
:1013D0009A83898314C013C01A82198211C0000035
:1013E0000FC000000DC000000BC0000009C00000CD
:1013F00007C0000005C0000003C0000001C00000DD
:1014000089819A81092E000CAA0BBB0B40E050E0A9
:1014100028E030E0841B950B2817390708F45BC3DC
:10142000815B9F4FFC010C943A1864E670E080E009
:1014300090E00E94B4004FC38091500190915101FF
:101440008A33924070F08091500190915101803A1E
:10145000924038F468EE73E080E090E00E94B400BF
:1014600039C08091500190915101803A924070F0C2
:1014700080915001909151018032934038F464EF93
:1014800071E080E090E00E94B40024C0809150019F
:10149000909151018032934070F080915001909171
:1014A0005101823B934038F46AEF70E080E090E0B5
:1014B0000E94B4000FC08091500190915101823B75
:1014C000934008F4F9C264E670E080E090E00E9486
:1014D000B400F2C2F1C280915001909151018A355D
:1014E000910538F464E670E080E090E00E94B4007A
:1014F000E5C280915001909151018A35910570F0BB
:1015000080915001909151018430914038F46AEFFC
:1015100070E080E090E00E94B4002CC08091500107
:10152000909151018430914070F0809150019091E0
:1015300051018A39914038F464EF71E080E090E025
:101540000E94B40017C080915001909151018A39D6
:10155000914008F4B3C280915001909151018231C1
:10156000924008F0ABC268EE73E080E090E00E9429
:10157000B400A4C2A3C280915201909153018A3356
:10158000924070F08091520190915301803A9240C4
:1015900038F468EE73E080E090E00E94B40039C057
:1015A0008091520190915301803A924070F0809165
:1015B0005201909153018032934038F464EF71E00E
:1015C00080E090E00E94B40024C08091520190918C
:1015D00053018032934070F08091520190915301F9
:1015E000823B934038F46AEF70E080E090E00E9424
:1015F000B4000FC08091520190915301823B9340FF
:1016000008F45EC264E670E080E090E00E94B400FE
:1016100057C256C280915201909153018A3591056B
:1016200038F464E670E080E090E00E94B4004AC2C2
:1016300080915201909153018A35910570F080910B
:101640005201909153018430914038F46AEF70E078
:1016500080E090E00E94B4002CC0809152019091F3
:1016600053018430914070F0809152019091530168
:101670008A39914038F464EF71E080E090E00E9494
:10168000B40017C080915201909153018A39914062
:1016900008F418C280915201909153018231924016
:1016A00008F010C268EE73E080E090E00E94B400A1
:1016B00009C208C280915001909151018A33924031
:1016C000E0F08091500190915101803A9240A8F44D
:1016D00080915201909153018A39914070F080912C
:1016E0005201909153018231924038F468EE73E0D8
:1016F00080E090E00E94B4005DC080915001909124
:101700005101803A9240E0F0809150019091510156
:1017100080329340A8F4809152019091530184301B
:10172000914070F080915201909153018A3991401B
:1017300038F464EF71E080E090E00E94B4003AC0B9
:10174000809150019091510180329340E0F080915E
:10175000500190915101823B9340A8F48091520135
:10176000909153018A35910570F0809152019091CA
:1017700053018430914038F46AEF70E080E090E0EB
:101780000E94B40017C08091500190915101823B9A
:10179000934008F499C180915201909153018A3588
:1017A000910508F091C164E670E080E090E00E944D
:1017B000B4008AC189C180915001909151018A334E
:1017C0009240E0F08091500190915101803A924016
:1017D000A8F480915201909153018A33924070F0A5
:1017E0008091520190915301803A924038F468EE12
:1017F00073E080E090E00E94B4005DC080915001F1
:1018000090915101803A9240E0F080915001909186
:10181000510180329340A8F480915201909153017C
:10182000803A924070F08091520190915301803241
:10183000934038F464EF71E080E090E00E94B400DF
:101840003AC0809150019091510180329340E0F074
:101850008091500190915101823B9340A8F4809176
:101860005201909153018032934070F08091520167
:1018700090915301823B934038F46AEF70E080E02E
:1018800090E00E94B40017C08091500190915101E6
:10189000823B934008F41AC1809152019091530108
:1018A000823B934008F412C164E670E080E090E06F
:1018B0000E94B4000BC10AC1809150019091510166
:1018C0008A399140E0F0809150019091510182312C
:1018D0009240A8F480915201909153018A3991402D
:1018E00070F080915201909153018231924038F40E
:1018F00068EE73E080E090E00E94B4005DC08091EB
:1019000050019091510184309140E0F0809150015C
:10191000909151018A399140A8F48091520190919F
:1019200053018430914070F08091520190915301A5
:101930008A39914038F464EF71E080E090E00E94D1
:10194000B4003AC080915001909151018A359105BF
:10195000E0F0809150019091510184309140A8F4C1
:1019600080915201909153018A35910570F08091D8
:101970005201909153018430914038F46AEF70E045
:1019800080E090E00E94B40017C0809150019091D7
:1019900051018A35910508F09BC0809152019091C8
:1019A00053018A35910508F093C064E670E080E049
:1019B00090E00E94B4008CC08BC080915001909147
:1019C00051018A399140E0F080915001909151018C
:1019D00082319240A8F480915201909153018A3350
:1019E000924070F08091520190915301803A924060
:1019F00038F468EE73E080E090E00E94B4005BC0D1
:101A0000809150019091510184309140E0F080919B
:101A10005001909151018A399140A8F4809152016E
:101A200090915301803A924070F0809152019091D0
:101A300053018032934038F464EF71E080E090E02D
:101A40000E94B40038C080915001909151018A35B4
:101A50009105E0F0809150019091510184309140C6
:101A6000A8F480915201909153018032934070F01C
:101A70008091520190915301823B934038F46AEF78
:101A800070E080E090E00E94B40015C080915001A9
:101A9000909151018A359105E8F48091520190911D
:101AA0005301823B9340B0F064E670E080E090E048
:101AB0000E94B4000FC00EC000000DC000000BC09B
:101AC000000009C0000007C0000005C0000003C0FE
:101AD000000001C0000089819A810F900F90DF9172
:101AE000CF910895CF93DF9300D0CDB7DEB79A831F
:101AF000898389819A81092E000CAA0BBB0B40E0D7
:101B000050E028E030E0841B950B2817390708F4D3
:101B10008BC7885A9F4FFC010C943A188091500152
:101B20009091510182319240C0F08091500190918A
:101B300051018B33924088F480915201909153016E
:101B40008231924050F080915201909153018B3339
:101B5000924018F41A821982B7C080915001909176
:101B600051018B33924098F0809152019091530132
:101B70008231924060F080915201909153018B33F9
:101B8000924028F481E090E09A8389839DC08091FF
:101B90005001909151018231924098F4809152010C
:101BA000909153018231924060F080915201909166
:101BB00053018B33924028F482E090E09A8389832A
:101BC00083C080915201909153018B33924098F0E1
:101BD00080915001909151018231924060F080914A
:101BE0005001909151018B33924028F483E090E0B2
:101BF0009A83898369C08091520190915301823107
:101C0000924098F48091500190915101823192401C
:101C100060F080915001909151018B33924028F4F3
:101C200084E090E09A8389834FC080915001909125
:101C300051018B33924060F0809152019091530199
:101C40008231924028F485E090E09A8389833CC0F9
:101C500080915001909151018B33924060F08091BE
:101C60005201909153018B33924028F086E090E02E
:101C70009A83898329C080915001909151018231CA
:101C8000924060F4809152019091530182319240D0
:101C900028F487E090E09A83898316C080915001F0
:101CA000909151018231924008F0C1C68091520159
:101CB000909153018B33924008F4B9C688E090E0CC
:101CC0009A8389830C9417150C94171580915001F1
:101CD0009091510182319240C0F0809150019091D9
:101CE00051018B33924088F48091520190915301BD
:101CF0008231924050F080915201909153018B3388
:101D0000924018F41A821982B6C0809150019091C5
:101D100051018B33924098F0809152019091530180
:101D20008231924060F080915201909153018B3347
:101D3000924028F481E090E09A8389839CC080914E
:101D40005001909151018231924098F4809152015A
:101D5000909153018231924060F0809152019091B4
:101D600053018B33924028F482E090E09A83898378
:101D700082C080915201909153018B33924098F030
:101D800080915001909151018231924060F0809198
:101D90005001909151018B33924028F483E090E000
:101DA0009A83898368C08091520190915301823156
:101DB000924098F48091500190915101823192406B
:101DC00060F080915001909151018B33924028F442
:101DD00084E090E09A8389834EC080915001909175
:101DE00051018B33924060F08091520190915301E8
:101DF0008231924028F485E090E09A8389833BC049
:101E000080915001909151018B33924060F080910C
:101E10005201909153018B33924028F086E090E07C
:101E20009A83898328C08091500190915101823119
:101E3000924060F48091520190915301823192401E
:101E400028F487E090E09A83898315C0809150013F
:101E5000909151018231924008F0EBC5809152017E
:101E6000909153018B33924008F4E3C588E090E0F1
:101E70009A838983DEC5DDC580915001909151011F
:101E800082319240C0F080915001909151018B338A
:101E9000924088F480915201909153018231924096
:101EA00050F080915201909153018B33924018F47D
:101EB0001A821982B6C080915001909151018B33E2
:101EC000924098F08091520190915301823192405A
:101ED00060F080915201909153018B33924028F42D
:101EE00081E090E09A8389839CC080915001909119
:101EF00051018231924098F48091520190915301A6
:101F00008231924060F080915201909153018B3365
:101F1000924028F482E090E09A83898382C0809185
:101F20005201909153018B33924098F0809150016F
:101F3000909151018231924060F0809150019091D6
:101F400051018B33924028F483E090E09A83898397
:101F500068C080915201909153018231924098F46F
:101F600080915001909151018231924060F08091B6
:101F70005001909151018B33924028F484E090E01D
:101F80009A8389834EC080915001909151018B3387
:101F9000924060F0809152019091530182319240C1
:101FA00028F485E090E09A8389833BC080915001BA
:101FB000909151018B33924060F080915201909149
:101FC00053018B33924028F086E090E09A83898316
:101FD00028C080915001909151018231924060F46B
:101FE00080915201909153018231924028F487E010
:101FF00090E09A83898315C080915001909151019E
:102000008231924008F017C580915201909153019E
:102010008B33924008F40FC588E090E09A8389835F
:102020000AC509C5809150019091510182319240B9
:10203000C0F080915001909151018B33924088F40F
:1020400080915201909153018231924050F08091E1
:102050005201909153018B33924018F41A821982E5
:10206000B6C080915001909151018B33924098F00D
:1020700080915201909153018231924060F08091A1
:102080005201909153018B33924028F481E090E00B
:102090009A8389839CC08091500190915101823133
:1020A000924098F480915201909153018231924074
:1020B00060F080915201909153018B33924028F44B
:1020C00082E090E09A83898382C08091520190914E
:1020D00053018B33924098F08091500190915101BF
:1020E0008231924060F080915001909151018B3388
:1020F000924028F483E090E09A83898368C08091BD
:102100005201909153018231924098F48091500194
:10211000909151018231924060F0809150019091F4
:1021200051018B33924028F484E090E09A838983B4
:102130004EC080915001909151018B33924060F0DC
:1021400080915201909153018231924028F485E0B0
:1021500090E09A8389833BC0809150019091510116
:102160008B33924060F080915201909153018B33F8
:10217000924028F086E090E09A83898328C080917D
:102180005001909151018231924060F4809152014E
:10219000909153018231924028F487E090E09A8335
:1021A000898315C0809150019091510182319240F4
:1021B00008F043C480915201909153018B339240B7
:1021C00008F43BC488E090E09A83898336C435C420
:1021D000809150019091510182319240C0F08091E4
:1021E0005001909151018B33924088F480915201BB
:1021F000909153018231924050F080915201909120
:1022000053018B33924018F41A821982B6C0809120
:102210005001909151018B33924098F0809152017E
:10222000909153018231924060F0809152019091DF
:1022300053018B33924028F481E090E09A838983A4
:102240009CC080915001909151018231924098F44C
:1022500080915201909153018231924060F08091BF
:102260005201909153018B33924028F482E090E028
:102270009A83898382C080915201909153018B335C
:10228000924098F08091500190915101823192409A
:1022900060F080915001909151018B33924028F46D
:1022A00083E090E09A83898368C080915201909185
:1022B00053018231924098F48091500190915101E4
:1022C0008231924060F080915001909151018B33A6
:1022D000924028F484E090E09A8389834EC08091F4
:1022E0005001909151018B33924060F080915201E6
:1022F000909153018231924028F485E090E09A83D6
:1023000089833BC080915001909151018B33924061
:1023100060F080915201909153018B33924028F0EC
:1023200086E090E09A83898328C080915001909143
:1023300051018231924060F4809152019091530199
:102340008231924028F487E090E09A83898315C017
:1023500080915001909151018231924008F06FC3F9
:1023600080915201909153018B33924008F467C3DE
:1023700088E090E09A83898362C361C380915001B1
:102380009091510182319240C0F080915001909122
:1023900051018B33924088F4809152019091530106
:1023A0008231924050F080915201909153018B33D1
:1023B000924018F41A821982B6C08091500190910F
:1023C00051018B33924098F08091520190915301CA
:1023D0008231924060F080915201909153018B3391
:1023E000924028F481E090E09A8389839CC0809198
:1023F0005001909151018231924098F480915201A4
:10240000909153018231924060F0809152019091FD
:1024100053018B33924028F482E090E09A838983C1
:1024200082C080915201909153018B33924098F079
:1024300080915001909151018231924060F08091E1
:102440005001909151018B33924028F483E090E049
:102450009A83898368C0809152019091530182319F
:10246000924098F4809150019091510182319240B4
:1024700060F080915001909151018B33924028F48B
:1024800084E090E09A8389834EC0809150019091BE
:1024900051018B33924060F0809152019091530131
:1024A0008231924028F485E090E09A8389833BC092
:1024B00080915001909151018B33924060F0809156
:1024C0005201909153018B33924028F086E090E0C6
:1024D0009A83898328C08091500190915101823163
:1024E000924060F480915201909153018231924068
:1024F00028F487E090E09A83898315C08091500189
:10250000909151018231924008F09BC2809152011A
:10251000909153018B33924008F493C288E090E08D
:102520009A8389838EC28DC280915001909151010E
:1025300082319240C0F080915001909151018B33D3
:10254000924088F4809152019091530182319240DF
:1025500050F080915201909153018B33924018F4C6
:102560001A821982B6C080915001909151018B332B
:10257000924098F0809152019091530182319240A3
:1025800060F080915201909153018B33924028F476
:1025900081E090E09A8389839CC080915001909162
:1025A00051018231924098F48091520190915301EF
:1025B0008231924060F080915201909153018B33AF
:1025C000924028F482E090E09A83898382C08091CF
:1025D0005201909153018B33924098F080915001B9
:1025E000909151018231924060F080915001909120
:1025F00051018B33924028F483E090E09A838983E1
:1026000068C080915201909153018231924098F4B8
:1026100080915001909151018231924060F08091FF
:102620005001909151018B33924028F484E090E066
:102630009A8389834EC080915001909151018B33D0
:10264000924060F08091520190915301823192400A
:1026500028F485E090E09A8389833BC08091500103
:10266000909151018B33924060F080915201909192
:1026700053018B33924028F086E090E09A8389835F
:1026800028C080915001909151018231924060F4B4
:1026900080915201909153018231924028F487E059
:1026A00090E09A83898315C08091500190915101E7
:1026B0008231924008F0C7C180915201909153013C
:1026C0008B33924008F4BFC188E090E09A838983FD
:1026D000BAC1B9C1809150019091510182319240AB
:1026E000C0F080915001909151018B33924088F459
:1026F00080915201909153018231924050F080912B
:102700005201909153018B33924018F41A8219822E
:10271000B6C080915001909151018B33924098F056
:1027200080915201909153018231924060F08091EA
:102730005201909153018B33924028F481E090E054
:102740009A8389839CC0809150019091510182317C
:10275000924098F4809152019091530182319240BD
:1027600060F080915201909153018B33924028F494
:1027700082E090E09A83898382C080915201909197
:1027800053018B33924098F0809150019091510108
:102790008231924060F080915001909151018B33D1
:1027A000924028F483E090E09A83898368C0809106
:1027B0005201909153018231924098F480915001DE
:1027C000909151018231924060F08091500190913E
:1027D00051018B33924028F484E090E09A838983FE
:1027E0004EC080915001909151018B33924060F026
:1027F00080915201909153018231924028F485E0FA
:1028000090E09A8389833BC080915001909151015F
:102810008B33924060F080915201909153018B3341
:10282000924028F086E090E09A83898328C08091C6
:102830005001909151018231924060F48091520197
:10284000909153018231924028F487E090E09A837E
:10285000898315C08091500190915101823192403D
:1028600008F0F3C080915201909153018B33924054
:1028700008F4EBC088E090E09A838983E6C0E5C065
:10288000809150019091510182319240C0F080912D
:102890005001909151018B33924088F48091520104
:1028A000909153018231924050F080915201909169
:1028B00053018B33924018F41A821982B4C080916C
:1028C0005001909151018B33924098F080915201C8
:1028D000909153018231924060F080915201909129
:1028E00053018B33924028F481E090E09A838983EE
:1028F0009AC080915001909151018231924098F498
:1029000080915201909153018231924060F0809108
:102910005201909153018B33924028F482E090E071
:102920009A83898380C080915201909153018B33A7
:10293000924098F0809150019091510182319240E3
:1029400060F080915001909151018B33924028F4B6
:1029500083E090E09A83898366C0809152019091D0
:1029600053018231924098F480915001909151012D
:102970008231924060F080915001909151018B33EF
:10298000924028F484E090E09A8389834CC080913F
:102990005001909151018B33924060F0809152012F
:1029A000909153018231924028F485E090E09A831F
:1029B000898339C080915001909151018B339240AD
:1029C00060F080915201909153018B33924028F036
:1029D00086E090E09A83898326C08091500190918F
:1029E00051018231924060F48091520190915301E3
:1029F0008231924028F487E090E09A83898313C063
:102A000080915001909151018231924000F5809166
:102A10005201909153018B339240C8F088E090E0CE
:102A20009A83898314C013C01A82198211C00000CE
:102A30000FC000000DC000000BC0000009C0000066
:102A400007C0000005C0000003C0000001C0000076
:102A500089819A81092E000CAA0BBB0B40E050E043
:102A600028E030E0841B950B2817390708F4F0C0E4
:102A70008F599F4FFC010C943A18809114018130BA
:102A800021F481E080931401D4C08091140182303C
:102A900008F4CFC080911401869580931401C9C0B9
:102AA00080911401803821F480E880931401C3C020
:102AB0008091140188230CF4BEC080911401880F0A
:102AC00080931401B8C080911501813021F481E018
:102AD00080931501B2C080911501823008F4ADC019
:102AE00080911501869580931501A7C080911501ED
:102AF000803121F480E180931501A1C080911501FE
:102B0000803108F09CC080911501880F80931501D9
:102B100096C080911401813021F481E080931401EA
:102B200009C080911401823028F0809114018695AB
:102B30008093140180911501803121F480E180930C
:102B400015017FC080911501803108F07AC0809115
:102B50001501880F8093150174C080911401813094
:102B600021F481E08093140109C080911401823026
:102B700028F08091140186958093140180911501AD
:102B8000813021F481E0809315015DC080911501B1
:102B9000823008F458C08091150186958093150104
:102BA00052C080911401803821F480E88093140190
:102BB00009C08091140188232CF080911401880FA2
:102BC0008093140180911501803121F480E180937C
:102BD00015013BC0809115018031B8F58091150138
:102BE000880F8093150131C080911401803821F441
:102BF00080E88093140109C08091140188232CF08F
:102C000080911401880F8093140180911501813007
:102C100021F481E0809315011AC080911501823062
:102C2000B0F08091150186958093150110C00000C9
:102C30000FC000000DC000000BC0000009C0000064
:102C400007C0000005C0000003C0000001C0000074
:102C500089819A810F900F90DF91CF910895CF9342
:102C6000DF9300D0CDB7DEB79A83898389819A81BB
:102C7000892B19F41A82198203C01A821982000062
:102C800089819A81892B71F488E290E02091140166
:102C9000FC0120838BE290E0209115012095FC013E
:102CA0002083000089819A810F900F90DF91CF914E
:102CB00008950F931F93CF93DF93CDB7DEB762973D
:102CC0000FB6F894DEBF0FBECDBF81E290E0FC01ED
:102CD000108282E290E02FEFFC01208387E290E0F7
:102CE0002FEFFC01208388E290E0FC0110828AE251
:102CF00090E02FE1FC0120838BE290E0FC01108248
:102D000088E0E6E1F1E0DE011B9601900D928A95E4
:102D1000E1F784E090E09A8789871092240189E1A5
:102D200090E0A0E0B0E08093250190932601A0936D
:102D30002701B09328018091250190912601A0914F
:102D40002701B09128018093290190932A01A09333
:102D50002B01B0932C0185E192E090932E0180939A
:102D60002D0110922F0184E690E0A0E0B0E0809366
:102D7000300190933101A0933201B09333018091DF
:102D8000300190913101A0913201B09133018093D3
:102D9000340190933501A0933601B093370182E757
:102DA0009DE0909339018093380110923A0182E3BB
:102DB00090E0A0E0B0E080933B0190933C01A093B1
:102DC0003D01B0933E0180913B0190913C01A09167
:102DD0003D01B0913E0180933F0190934001A0934B
:102DE0004101B09342018FE296E1909344018093B8
:102DF0004301109245018AE090E0A0E0B0E08093AA
:102E0000460190934701A0934801B09349018091F6
:102E1000460190914701A0914801B09149018093EA
:102E20004A0190934B01A0934C01B0934D018AE469
:102E300092E090934F0180934E018B859C85FC011D
:102E400081819281A381B48189839A83AB83BC837E
:102E500081E090E09E838D8325C08D819E81880FC7
:102E6000991F9E012F5F3F4F820F931F0A96FC010F
:102E700080819181FC01218132814381548189814A
:102E80009A81AB81BC81BC01CD010E949201DC0121
:102E9000CB0189839A83AB83BC838D819E8101960C
:102EA0009E838D832D813E8189859A8528173907D8
:102EB000A0F289819A81AB81BC81BC01CD010E94C5
:102EC000B4000E94E2000E94DF0118861F82A0C0A9
:102ED0008F819885880F991F9E012F5F3F4F820F2A
:102EE000931F0A96FC0180819181FC012581368126
:102EF000478150858F819885880F991FBE016F5F2C
:102F00007F4F860F971F0A96FC0180819181FC01FB
:102F100081819281A381B481281739074A075B0711
:102F200009F045C08F819885880F991F9E012F5FFA
:102F30003F4F820F931F0A96FC01008111818F8100
:102F40009885880F991F9E012F5F3F4F820F931F17
:102F50000A96FC0180819181FC01218532858F8157
:102F60009885880F991FAE014F5F5F4F840F951FA3
:102F70000A96FC0180819181FC018081082E000C61
:102F8000990BF9010995F80180838F819885880F45
:102F9000991F9E012F5F3F4F820F931F0A96FC01DE
:102FA00080819181FC0115821682178210868F81A3
:102FB0009885880F991F9E012F5F3F4F820F931FA7
:102FC0000A96FC01608171818F819885880F991F15
:102FD0009E012F5F3F4F820F931F0A96FC01808155
:102FE0009181FC01258136814781508589819A81B3
:102FF000AB81BC81820F931FA41FB51FFB0185838A
:103000009683A783B0878F819885019698878F8351
:103010002F81388589859A852817390708F458CF74
:10302000000080911E018823E1F310921E014DCF14
:10303000A1E21A2EAA1BBB1BFD010DC0AA1FBB1FBC
:10304000EE1FFF1FA217B307E407F50720F0A21B2E
:10305000B30BE40BF50B661F771F881F991F1A949B
:1030600069F760957095809590959B01AC01BD01C5
:10307000CF010895EE0FFF1F0024001C0BBE079028
:0A308000F691E02D0994F894FFCFBB
:10308A0000000002000000008B00000000000100A8
:0E309A0000006400800124012F013A0145016D
:00000001FF
