:100000000C9446000C9465000C9465000C946500FB
:100010000C9465000C9465000C9465000C946500CC
:100020000C9465000C9465000C9465000C946500BC
:100030000C9465000C940C010C9465000C94650004
:100040000C9465000C9465000C9465000C9465009C
:100050000C9465000C9465000C9465000C9465008C
:100060000C9465000C9465000C9465000C9465007C
:100070000C9465000C9465000C9465000C9465006C
:100080000C9465000C9465000C94650011241FBE4F
:10009000CFEFD0E4DEBFCDBF11E0A0E0B1E0ECE9EE
:1000A000F8E000E00BBF02C007900D92A431B10749
:1000B000D9F721E0A4E1B1E001C01D92AF32B2074F
:1000C000E1F70E94B4020C944C040C940000CF930E
:1000D000DF9300D01F92CDB7DEB789837B836A831D
:1000E00089818A3031F48A819B81BC018DE00E9434
:1000F000670080EC90E0FC018081882F90E08072A6
:100100009927892BB1F386EC90E02981FC012083AB
:1001100080E090E00F900F900F90DF91CF910895C5
:10012000CF93DF9300D000D0CDB7DEB769837A8359
:100130008B839C8389819A81AB81BC8180930E01E2
:1001400090930F01A0931001B093110180910E01C3
:1001500090910F01A0911001B091110180931501B0
:1001600090931601A0931701B093180100000F900F
:100170000F900F900F90DF91CF910895CF93DF9361
:10018000CDB7DEB781E890E02BE0FC01208388E862
:1001900090E02DE730E0FC01318320838FE690E092
:1001A00022E0FC01208384E890E0FC0111821082AF
:1001B00080910E0190910F01A0911001B091110159
:1001C0008093150190931601A0931701B093180125
:1001D0008FE590E02FE530E0F90120812068FC01F7
:1001E00020830000DF91CF910895CF93DF93CDB7A7
:1001F000DEB781E890E0FC0110820000DF91CF9132
:100200000895CF93DF93CDB7DEB781E080931401DB
:100210000000DF91CF9108951F920F9200905F0030
:100220000F92112400905B000F922F933F934F93F6
:100230005F936F937F938F939F93AF93BF93EF934E
:10024000FF93CF93DF93CDB7DEB7809115019091E7
:100250001601A0911701B09118010197A109B109E8
:100260008093150190931601A0931701B093180184
:100270008091150190911601A0911701B09118017C
:10028000892B8A2B8B2B91F40E94010180910E0106
:1002900090910F01A0911001B0911101809315016F
:1002A00090931601A0931701B09318010000DF91FD
:1002B000CF91FF91EF91BF91AF919F918F917F91DE
:1002C0006F915F914F913F912F910F9000925B0042
:1002D0000F9000925F000F901F901895CF93DF93BF
:1002E000CDB7DEB72C970FB6F894DEBF0FBECDBFEB
:1002F0006D837E838F83988729873A874B875C87B6
:100300008D819E81AF81B88529853A854B855C8535
:10031000BC01CD010E942A04DC01CB0189839A83B0
:10032000AB83BC8389819A81AB81BC81892B8A2B69
:100330008B2B29F489859A85AB85BC8511C089856D
:100340009A85AB85BC858D839E83AF83B887898171
:100350009A81AB81BC8189879A87AB87BC87D0CFD4
:10036000BC01CD012C960FB6F894DEBF0FBECDBFF9
:10037000DF91CF910895CF93DF93CDB7DEB78AE7B2
:1003800090E02AE730E0F9012081206EFC01208313
:100390000000DF91CF910895CF93DF9300D000D07C
:1003A000CDB7DEB79C838B8388E790E0FC0180812A
:1003B00091819A8389838B819C818130910549F158
:1003C0008230910509F446C0892B09F064C0898107
:1003D0009A818C31924040F089819A818133924098
:1003E00018F41C821B825AC089819A818C319240F8
:1003F00028F481E090E09C838B8350C089819A81AE
:100400008133924008F44AC082E090E09C838B8361
:1004100045C089819A818C31924028F481E090E036
:100420009C838B833DC089819A818C31924040F0BE
:1004300089819A818133924018F41C821B8230C0DA
:1004400089819A818133924058F182E090E09C83C7
:100450008B8326C089819A818133924028F082E083
:1004600090E09C838B831EC089819A818C3192405D
:1004700040F089819A818133924018F41C821B825A
:1004800011C089819A818C31924060F481E090E0C2
:100490009C838B8307C01C821B8205C0000003C0A5
:1004A000000001C000008B819C818130910519F012
:1004B000029799F027C080911201803821F481E0E1
:1004C000809312011CC0809112018823C4F0809196
:1004D0001201880F8093120112C0809112018130A5
:1004E00021F480E8809312010CC0809112018230C7
:1004F00040F08091120186958093120102C00000A5
:1005000001C000008B819C810F900F900F900F9085
:10051000DF91CF910895CF93DF9300D0CDB7DEB7B1
:100520009A83898389819A81892B19F41A82198285
:1005300003C01A821982000089819A81892B69F48B
:1005400088E290E020911201FC0120838BE290E090
:1005500020911301FC012083000089819A810F9072
:100560000F90DF91CF9108950F931F93CF93DF9357
:10057000CDB7DEB72E970FB6F894DEBF0FBECDBF56
:1005800081E290E0FC01108282E290E02FEFFC011A
:10059000208387E290E02FEFFC01208388E290E047
:1005A000FC0110828AE290E02FEFFC0120838BE2B5
:1005B00090E0FC01108289E191E09C878B8784E2C6
:1005C00091E09E878D8782E090E09A8789871092DC
:1005D00019018BE490E0A0E0B0E080931A019093C1
:1005E0001B01A0931C01B0931D0180911A019091F1
:1005F0001B01A0911C01B0911D0180931E019093DD
:100600001F01A0932001B09321018CEC91E0909305
:100610002301809322011092240182E390E0A0E064
:10062000B0E08093250190932601A0932701B09319
:1006300028018091250190912601A0912701B09178
:1006400028018093290190932A01A0932B01B09354
:100650002C018BE892E090932E0180932D018B85E5
:100660009C85FC0181819281A381B48189839A83D5
:10067000AB83BC8381E090E09E838D8325C08D8118
:100680009E81880F991F9E012F5F3F4F820F931FFE
:100690000A96FC0180819181FC0121813281438194
:1006A000548189819A81AB81BC81BC01CD010E94BA
:1006B0006E01DC01CB0189839A83AB83BC838D817E
:1006C0009E8101969E838D832D813E8189859A85A9
:1006D00028173907A0F289819A81AB81BC81BC01BE
:1006E000CD010E9490000E94BE000E94BB011886AE
:1006F0001F82A0C08F819885880F991F9E012F5F50
:100700003F4F820F931F0A96FC0180819181FC016B
:1007100025813681478150858F819885880F991F63
:10072000BE016F5F7F4F860F971F0A96FC01808185
:100730009181FC0181819281A381B48128173907BD
:100740004A075B0709F045C08F819885880F991F7C
:100750009E012F5F3F4F820F931F0A96FC0100817D
:1007600011818F819885880F991F9E012F5F3F4FC0
:10077000820F931F0A96FC0180819181FC012185E3
:1007800032858F819885880F991FAE014F5F5F4F2B
:10079000840F951F0A96FC0180819181FC01808164
:1007A000082E000C990BF9010995F80180838F81BF
:1007B0009885880F991F9E012F5F3F4F820F931FCF
:1007C0000A96FC0180819181FC01158216821782B4
:1007D00010868F819885880F991F9E012F5F3F4F4C
:1007E000820F931F0A96FC01608171818F81988529
:1007F000880F991F9E012F5F3F4F820F931F0A960C
:10080000FC0180819181FC012581368147815085E1
:1008100089819A81AB81BC81820F931FA41FB51F70
:10082000FB0185839683A783B0878F819885019686
:1008300098878F832F81388589859A85281739076E
:1008400008F458CF0000809114018823E1F310923E
:1008500014014DCFA1E21A2EAA1BBB1BFD010DC036
:10086000AA1FBB1FEE1FFF1FA217B307E407F50760
:1008700020F0A21BB30BE40BF50B661F771F881F3C
:10088000991F1A9469F760957095809590959B01D2
:0C089000AC01BD01CF010895F894FFCF2A
:10089C0000000002000000006700000000000100E2
:0408AC00000080FECA
:00000001FF
