:100000000C9446000C9465000C9465000C946500FB
:100010000C9465000C9465000C9465000C946500CC
:100020000C9465000C9465000C9465000C946500BC
:100030000C9465000C940C010C9465000C94650004
:100040000C9465000C9465000C9465000C9465009C
:100050000C9465000C9465000C9465000C9465008C
:100060000C9465000C9465000C9465000C9465007C
:100070000C9465000C9465000C9465000C9465006C
:100080000C9465000C9465000C94650011241FBE4F
:10009000CFEFD0E4DEBFCDBF11E0A0E0B1E0E6E3FA
:1000A000FBE000E00BBF02C007900D92AC31B1073E
:1000B000D9F721E0ACE1B1E001C01D92A234B20752
:1000C000E1F70E94DC030C9499050C940000CF9397
:1000D000DF9300D01F92CDB7DEB789837B836A831D
:1000E00089818A3031F48A819B81BC018DE00E9434
:1000F000670080EC90E0FC018081882F90E08072A6
:100100009927892BB1F386EC90E02981FC012083AB
:1001100080E090E00F900F900F90DF91CF910895C5
:10012000CF93DF9300D000D0CDB7DEB769837A8359
:100130008B839C8389819A81AB81BC8180930E01E2
:1001400090930F01A0931001B093110180910E01C3
:1001500090910F01A0911001B091110180931D01A8
:1001600090931E01A0931F01B093200100000F90F7
:100170000F900F900F90DF91CF910895CF93DF9361
:10018000CDB7DEB781E890E02BE0FC01208388E862
:1001900090E02DE730E0FC01318320838FE690E092
:1001A00022E0FC01208384E890E0FC0111821082AF
:1001B00080910E0190910F01A0911001B091110159
:1001C00080931D0190931E01A0931F01B093200105
:1001D0008FE590E02FE530E0F90120812068FC01F7
:1001E00020830000DF91CF910895CF93DF93CDB7A7
:1001F000DEB781E890E0FC0110820000DF91CF9132
:100200000895CF93DF93CDB7DEB781E080931C01D3
:100210000000DF91CF9108951F920F9200905F0030
:100220000F92112400905B000F922F933F934F93F6
:100230005F936F937F938F939F93AF93BF93EF934E
:10024000FF93CF93DF93CDB7DEB780911D019091DF
:100250001E01A0911F01B09120010197A109B109D0
:1002600080931D0190931E01A0931F01B093200164
:1002700080911D0190911E01A0911F01B09120015C
:10028000892B8A2B8B2B91F40E94010180910E0106
:1002900090910F01A0911001B091110180931D0167
:1002A00090931E01A0931F01B09320010000DF91E5
:1002B000CF91FF91EF91BF91AF919F918F917F91DE
:1002C0006F915F914F913F912F910F9000925B0042
:1002D0000F9000925F000F901F901895CF93DF93BF
:1002E000CDB7DEB72C970FB6F894DEBF0FBECDBFEB
:1002F0006D837E838F83988729873A874B875C87B6
:100300008D819E81AF81B88529853A854B855C8535
:10031000BC01CD010E947705DC01CB0189839A8362
:10032000AB83BC8389819A81AB81BC81892B8A2B69
:100330008B2B29F489859A85AB85BC8511C089856D
:100340009A85AB85BC858D839E83AF83B887898171
:100350009A81AB81BC8189879A87AB87BC87D0CFD4
:10036000BC01CD012C960FB6F894DEBF0FBECDBFF9
:10037000DF91CF910895CF93DF93CDB7DEB78AE7B2
:1003800090E02AE730E0F9012081206EFC01208313
:100390000000DF91CF910895CF93DF9300D000D07C
:1003A000CDB7DEB79C838B8388E790E0FC0180812A
:1003B00091819A8389838B819C818130910549F158
:1003C0008230910509F446C0892B09F064C0898107
:1003D0009A818C31924040F089819A818033924099
:1003E00018F41C821B825AC089819A818C319240F8
:1003F00028F481E090E09C838B8350C089819A81AE
:100400008033924008F44AC082E090E09C838B8362
:1004100045C089819A818C31924028F481E090E036
:100420009C838B833DC089819A818C31924040F0BE
:1004300089819A818033924018F41C821B8230C0DB
:1004400089819A818033924058F182E090E09C83C8
:100450008B8326C089819A818033924028F082E084
:1004600090E09C838B831EC089819A818C3192405D
:1004700028F481E090E09C838B8314C089819A8169
:100480008C31924078F089819A818033924050F487
:100490001C821B8207C01C821B8205C0000003C097
:1004A000000001C000008B819C818130910571F0BA
:1004B0008230910509F44CC0892B09F08CC064E6A8
:1004C00070E080E090E00E94900085C089819A8170
:1004D0008A35910538F464E670E080E090E00E948F
:1004E000900076C089819A818A35910560F0898172
:1004F0009A818430914038F46AEF70E080E090E0B7
:100500000E94900024C089819A818430914060F0DB
:1005100089819A818A39914038F464EF71E080E0F2
:1005200090E00E94900013C089819A818A3991409D
:1005300008F44EC089819A818C31924008F048C0FD
:1005400068EE73E080E090E00E94900041C040C0FF
:1005500089819A818033924060F089819A81803AC2
:10056000924038F468EE73E080E090E00E949000E2
:100570002EC089819A81803A924060F089819A8167
:100580008032934038F464EF71E080E090E00E94A4
:1005900090001DC089819A818032934060F08981EA
:1005A0009A81823B934038F46AEF70E080E090E0FB
:1005B0000E9490000CC089819A81823B934050F048
:1005C00064E670E080E090E00E94900003C002C00A
:1005D000000001C000008B819C810F900F900F9054
:1005E0000F90DF91CF910895CF93DF9300D000D08B
:1005F000CDB7DEB79C838B8388E790E0FC018081D8
:1006000091819A8389838B819C818130910549F105
:100610008230910509F446C0892B09F064C08981B4
:100620009A818C31924040F089819A818133924045
:1006300018F41C821B825AC089819A818C319240A5
:1006400028F481E090E09C838B8350C089819A815B
:100650008133924008F44AC082E090E09C838B830F
:1006600045C089819A818C31924028F481E090E0E4
:100670009C838B833DC089819A818C31924040F06C
:1006800089819A818133924018F41C821B8230C088
:1006900089819A818133924058F182E090E09C8375
:1006A0008B8326C089819A818133924028F082E031
:1006B00090E09C838B831EC089819A818C3192400B
:1006C00040F089819A818133924018F41C821B8208
:1006D00011C089819A818C31924060F481E090E070
:1006E0009C838B8307C01C821B8205C0000003C053
:1006F000000001C000008B819C818130910519F0C0
:10070000029799F027C080911401803821F481E08C
:10071000809314011CC0809114018823C4F080913F
:100720001401880F8093140112C08091140181304C
:1007300021F480E8809314010CC080911401823070
:1007400040F08091140186958093140102C000004E
:1007500001C000008B819C810F900F900F900F9033
:10076000DF91CF910895CF93DF9300D0CDB7DEB75F
:100770009A83898389819A81892B19F41A82198233
:1007800003C01A821982000089819A81892B69F439
:1007900088E290E020911401FC0120838BE290E03C
:1007A00020911501FC012083000089819A810F901E
:1007B0000F90DF91CF9108950F931F93CF93DF9305
:1007C000CDB7DEB760970FB6F894DEBF0FBECDBFD2
:1007D00081E290E0FC01108282E290E02FEFFC01C8
:1007E000208387E290E02FEFFC01208388E290E0F5
:1007F000FC0110828AE290E02FEFFC0120838BE263
:1008000090E0FC01108286E0E6E1F1E0DE011B965B
:1008100001900D928A95E1F783E090E09A878987AD
:100820001092210182E390E0A0E0B0E080932201E9
:1008300090932301A0932401B0932501809122017C
:1008400090912301A0912401B0912501809326016C
:1008500090932701A0932801B09329018CEC91E09B
:1008600090932B0180932A0110922C0182E390E057
:10087000A0E0B0E080932D0190932E01A0932F0172
:10088000B093300180912D0190912E01A0912F0104
:10089000B09130018093310190933201A0933301E4
:1008A000B093340184EF92E0909336018093350148
:1008B0001092370182E390E0A0E0B0E0809338012D
:1008C00090933901A0933A01B0933B018091380194
:1008D00090913901A0913A01B0913B0180933C0184
:1008E00090933D01A0933E01B0933F0183EB93E0D1
:1008F00090934101809340018B859C85FC0181810F
:100900009281A381B48189839A83AB83BC8381E084
:1009100090E09E838D8325C08D819E81880F991FD5
:100920009E012F5F3F4F820F931F0A96FC0180812B
:100930009181FC01218132814381548189819A8195
:10094000AB81BC81BC01CD010E946E01DC01CB01F9
:1009500089839A83AB83BC838D819E8101969E831C
:100960008D832D813E8189859A8528173907A0F2CC
:1009700089819A81AB81BC81BC01CD010E9490002C
:100980000E94BE000E94BB0118861F82A0C08F81FA
:100990009885880F991F9E012F5F3F4F820F931FED
:1009A0000A96FC0180819181FC0125813681478175
:1009B00050858F819885880F991FBE016F5F7F4F8B
:1009C000860F971F0A96FC0180819181FC0181812D
:1009D0009281A381B481281739074A075B0709F080
:1009E00045C08F819885880F991F9E012F5F3F4FCB
:1009F000820F931F0A96FC01008111818F819885D7
:100A0000880F991F9E012F5F3F4F820F931F0A96F9
:100A1000FC0180819181FC01218532858F8198853F
:100A2000880F991FAE014F5F5F4F840F951F0A9685
:100A3000FC0180819181FC018081082E000C990BC2
:100A4000F9010995F80180838F819885880F991F96
:100A50009E012F5F3F4F820F931F0A96FC018081FA
:100A60009181FC0115821682178210868F819885EC
:100A7000880F991F9E012F5F3F4F820F931F0A9689
:100A8000FC01608171818F819885880F991F9E017B
:100A90002F5F3F4F820F931F0A96FC018081918147
:100AA000FC01258136814781508589819A81AB81FE
:100AB000BC81820F931FA41FB51FFB018583968302
:100AC000A783B0878F819885019698878F832F8120
:100AD000388589859A852817390708F458CF00008A
:100AE00080911C018823E1F310921C014DCFA1E2FB
:100AF0001A2EAA1BBB1BFD010DC0AA1FBB1FEE1F98
:100B0000FF1FA217B307E407F50720F0A21BB30BE2
:100B1000E40BF50B661F771F881F991F1A9469F75E
:100B200060957095809590959B01AC01BD01CF01BA
:060B30000895F894FFCFC8
:100B36000000000200000000670000000000010045
:0C0B46000000640080FE21012C0137013A
:00000001FF
