:100000000C9458000C9477000C9477000C947700B3
:100010000C9477000C9477000C9477000C94770084
:100020000C9477000C9477000C9477000C94770074
:100030000C9477000C941E010C9477000C947700BC
:100040000C9477000C9477000C9477000C94770054
:100050000C9477000C9477000C9477000C94770044
:100060000C9477000C9477000C9477000C94770034
:100070000C9477000C9477000C9477000C94770024
:100080000C9477000C9477000C94770054022C03A6
:100090000204D804AE0584065A0730080609DD0AB2
:1000A000030A160A290A3C0A4F0A730A970ABA0A6F
:1000B00011241FBECFEFD0E4DEBFCDBF11E0A0E022
:1000C000B1E0EEECF9E100E00BBF02C007900D9249
:1000D000AC31B107D9F721E0ACE1B1E001C01D922C
:1000E000A734B207E1F70E941F0B0C94E50C0C94A7
:1000F0000000CF93DF9300D01F92CDB7DEB7898386
:100100007B836A8389818A3031F48A819B81BC0137
:100110008DE00E94790080EC90E0FC018081882FC6
:1001200090E080729927892BB1F386EC90E02981C9
:10013000FC01208380E090E00F900F900F90DF9102
:10014000CF910895CF93DF9300D000D0CDB7DEB725
:1001500069837A838B839C8389819A81AB81BC81FB
:1001600080930E0190930F01A0931001B0931101A1
:1001700080910E0190910F01A0911001B091110199
:1001800080931D0190931E01A0931F01B093200145
:1001900000000F900F900F900F90DF91CF91089576
:1001A000CF93DF93CDB7DEB781E890E02BE0FC0181
:1001B000208388E890E02DE730E0FC013183208344
:1001C0008FE690E022E0FC01208384E890E0FC01CF
:1001D0001182108280910E0190910F01A091100167
:1001E000B091110180931D0190931E01A0931F01F6
:1001F000B09320018FE590E02FE530E0F9012081F8
:100200002068FC0120830000DF91CF910895CF93F7
:10021000DF93CDB7DEB781E890E0FC0110820000EB
:10022000DF91CF910895CF93DF93CDB7DEB781E013
:1002300080931C010000DF91CF9108951F920F92CF
:1002400000905F000F92112400905B000F922F939B
:100250003F934F935F936F937F938F939F93AF934E
:10026000BF93EF93FF93CF93DF93CDB7DEB780912A
:100270001D0190911E01A0911F01B09120010197D5
:10028000A109B10980931D0190931E01A0931F0144
:10029000B093200180911D0190911E01A0911F013A
:1002A000B0912001892B8A2B8B2B91F40E94130192
:1002B00080910E0190910F01A0911001B091110158
:1002C00080931D0190931E01A0931F01B093200104
:1002D0000000DF91CF91FF91EF91BF91AF919F917E
:1002E0008F917F916F915F914F913F912F910F90DF
:1002F00000925B000F9000925F000F901F90189586
:10030000CF93DF93CDB7DEB72C970FB6F894DEBF4F
:100310000FBECDBF6D837E838F83988729873A87F1
:100320004B875C878D819E81AF81B88529853A8511
:100330004B855C85BC01CD010E94BA0CDC01CB0170
:1003400089839A83AB83BC8389819A81AB81BC8189
:10035000892B8A2B8B2B29F489859A85AB85BC85C3
:1003600011C089859A85AB85BC858D839E83AF83BB
:10037000B88789819A81AB81BC8189879A87AB874D
:10038000BC87D0CFBC01CD012C960FB6F894DEBF50
:100390000FBECDBFDF91CF910895CF93DF93CDB73F
:1003A000DEB78AE790E02AE730E0F9012081206E8D
:1003B000FC0120830000DF91CF910895CF93DF935C
:1003C0001F92CDB7DEB789838CE790E02981283072
:1003D00028F02CE730E0F901208101C02981FC01DF
:1003E00020831092210106C00000809121018F5FBF
:1003F00080932101809121018F30B0F300000F9094
:10040000DF91CF910895CF93DF9300D0CDB7DEB7C2
:100410009A83898389819A81892B19F41A82198296
:1004200003C01A821982000089819A81892BC9F43C
:1004300080E00E94DE0188E790E0FC0180819181EC
:10044000909344018093430181E00E94DE0188E79C
:1004500090E0FC0180819181909346018093450159
:10046000000089819A810F900F90DF91CF910895BC
:10047000CF93DF9300D0CDB7DEB79A83898389818C
:100480009A81092E000CAA0BBB0B40E050E028E03B
:1004900030E0841B950B2817390708F48BC78A5B5B
:1004A0009F4FFC010C94DC0C80914301909144011E
:1004B00082319240C0F080914301909144018B338E
:1004C000924088F48091450190914601823192409A
:1004D00050F080914501909146018B33924018F481
:1004E0001A821982B7C080914301909144018B33E5
:1004F000924098F08091450190914601823192405E
:1005000060F080914501909146018B33924028F430
:1005100081E090E09A8389839DC08091430190910E
:1005200044018231924098F48091450190914601B6
:100530008231924060F080914501909146018B3369
:10054000924028F482E090E09A83898383C080916E
:100550004501909146018B33924098F08091430180
:10056000909144018231924060F0809143019091DA
:1005700044018B33924028F483E090E09A8389838E
:1005800069C080914501909146018231924098F472
:1005900080914301909144018231924060F08091BA
:1005A0004301909144018B33924028F484E090E021
:1005B0009A8389834FC080914301909144018B338A
:1005C000924060F0809145019091460182319240C5
:1005D00028F485E090E09A8389833CC080914301B0
:1005E000909144018B33924060F08091450190914D
:1005F00046018B33924028F086E090E09A8389830D
:1006000029C080914301909144018231924060F46D
:1006100080914501909146018231924028F487E013
:1006200090E09A83898316C08091430190914401A0
:100630008231924008F0C1C68091450190914601F7
:100640008B33924008F4B9C688E090E09A8389839E
:100650000C94DD090C94DD098091430190914401D3
:1006600082319240C0F080914301909144018B33DC
:10067000924088F4809145019091460182319240E8
:1006800050F080914501909146018B33924018F4CF
:100690001A821982B6C080914301909144018B3334
:1006A000924098F0809145019091460182319240AC
:1006B00060F080914501909146018B33924028F47F
:1006C00081E090E09A8389839CC08091430190915E
:1006D00044018231924098F4809145019091460105
:1006E0008231924060F080914501909146018B33B8
:1006F000924028F482E090E09A83898382C08091BE
:100700004501909146018B33924098F080914301CE
:10071000909144018231924060F080914301909128
:1007200044018B33924028F483E090E09A838983DC
:1007300068C080914501909146018231924098F4C1
:1007400080914301909144018231924060F0809108
:100750004301909144018B33924028F484E090E06F
:100760009A8389834EC080914301909144018B33D9
:10077000924060F080914501909146018231924013
:1007800028F485E090E09A8389833BC080914301FF
:10079000909144018B33924060F08091450190919B
:1007A00046018B33924028F086E090E09A8389835B
:1007B00028C080914301909144018231924060F4BD
:1007C00080914501909146018231924028F487E062
:1007D00090E09A83898315C08091430190914401F0
:1007E0008231924008F0EBC580914501909146011D
:1007F0008B33924008F4E3C588E090E09A838983C4
:10080000DEC5DDC580914301909144018231924063
:10081000C0F080914301909144018B33924088F461
:1008200080914501909146018231924050F0809133
:100830004501909146018B33924018F41A82198237
:10084000B6C080914301909144018B33924098F05F
:1008500080914501909146018231924060F08091F3
:100860004501909146018B33924028F481E090E05D
:100870009A8389839CC08091430190914401823185
:10088000924098F4809145019091460182319240C6
:1008900060F080914501909146018B33924028F49D
:1008A00082E090E09A83898382C080914501909193
:1008B00046018B33924098F080914301909144011E
:1008C0008231924060F080914301909144018B33DA
:1008D000924028F483E090E09A83898368C08091F5
:1008E0004501909146018231924098F480914301F4
:1008F000909144018231924060F080914301909147
:1009000044018B33924028F484E090E09A838983F9
:100910004EC080914301909144018B33924060F02E
:1009200080914501909146018231924028F485E002
:1009300090E09A8389833BC0809143019091440168
:100940008B33924060F080914501909146018B334A
:10095000924028F086E090E09A83898328C08091B5
:100960004301909144018231924060F480914501AD
:10097000909146018231924028F487E090E09A837A
:10098000898315C080914301909144018231924046
:1009900008F017C580914501909146018B33924034
:1009A00008F40FC588E090E09A8389830AC509C5D9
:1009B000809143019091440182319240C0F0809136
:1009C0004301909144018B33924088F4809145011A
:1009D000909146018231924050F080914501909172
:1009E00046018B33924018F41A821982B6C0809166
:1009F0004301909144018B33924098F080914501DE
:100A0000909146018231924060F080914501909131
:100A100046018B33924028F481E090E09A838983E9
:100A20009CC080914301909144018231924098F49E
:100A300080914501909146018231924060F0809111
:100A40004501909146018B33924028F482E090E07A
:100A50009A83898382C080914501909146018B33AE
:100A6000924098F0809143019091440182319240EC
:100A700060F080914301909144018B33924028F4BF
:100A800083E090E09A83898368C0809145019091CA
:100A900046018231924098F4809143019091440143
:100AA0008231924060F080914301909144018B33F8
:100AB000924028F484E090E09A8389834EC080912C
:100AC0004301909144018B33924060F08091450145
:100AD000909146018231924028F485E090E09A831B
:100AE00089833BC080914301909144018B339240B4
:100AF00060F080914501909146018B33924028F03F
:100B000086E090E09A83898328C080914301909188
:100B100044018231924060F48091450190914601F8
:100B20008231924028F487E090E09A83898315C04F
:100B300080914301909144018231924008F043C476
:100B400080914501909146018B33924008F43BC45B
:100B500088E090E09A83898336C435C4809143014C
:100B60009091440182319240C0F080914301909174
:100B700044018B33924088F4809145019091460165
:100B80008231924050F080914501909146018B3323
:100B9000924018F41A821982B6C080914301909154
:100BA00044018B33924098F0809145019091460129
:100BB0008231924060F080914501909146018B33E3
:100BC000924028F481E090E09A8389839CC08091D0
:100BD0004301909144018231924098F48091450103
:100BE000909146018231924060F080914501909150
:100BF00046018B33924028F482E090E09A83898307
:100C000082C080914501909146018B33924098F0CB
:100C100080914301909144018231924060F0809133
:100C20004301909144018B33924028F483E090E09B
:100C30009A83898368C080914501909146018231F1
:100C4000924098F480914301909144018231924006
:100C500060F080914301909144018B33924028F4DD
:100C600084E090E09A8389834EC080914301909103
:100C700044018B33924060F0809145019091460190
:100C80008231924028F485E090E09A8389833BC0CA
:100C900080914301909144018B33924060F08091A8
:100CA0004501909146018B33924028F086E090E018
:100CB0009A83898328C080914301909144018231B5
:100CC000924060F4809145019091460182319240BA
:100CD00028F487E090E09A83898315C080914301CE
:100CE000909144018231924008F06FC38091450198
:100CF000909146018B33924008F467C388E090E0FE
:100D00009A83898362C361C38091430190914401B6
:100D100082319240C0F080914301909144018B3325
:100D2000924088F480914501909146018231924031
:100D300050F080914501909146018B33924018F418
:100D40001A821982B6C080914301909144018B337D
:100D5000924098F0809145019091460182319240F5
:100D600060F080914501909146018B33924028F4C8
:100D700081E090E09A8389839CC0809143019091A7
:100D800044018231924098F480914501909146014E
:100D90008231924060F080914501909146018B3301
:100DA000924028F482E090E09A83898382C0809107
:100DB0004501909146018B33924098F08091430118
:100DC000909144018231924060F080914301909172
:100DD00044018B33924028F483E090E09A83898326
:100DE00068C080914501909146018231924098F40B
:100DF00080914301909144018231924060F0809152
:100E00004301909144018B33924028F484E090E0B8
:100E10009A8389834EC080914301909144018B3322
:100E2000924060F08091450190914601823192405C
:100E300028F485E090E09A8389833BC08091430148
:100E4000909144018B33924060F0809145019091E4
:100E500046018B33924028F086E090E09A838983A4
:100E600028C080914301909144018231924060F406
:100E700080914501909146018231924028F487E0AB
:100E800090E09A83898315C0809143019091440139
:100E90008231924008F09BC28091450190914601B9
:100EA0008B33924008F493C288E090E09A83898360
:100EB0008EC28DC280914301909144018231924053
:100EC000C0F080914301909144018B33924088F4AB
:100ED00080914501909146018231924050F080917D
:100EE0004501909146018B33924018F41A82198281
:100EF000B6C080914301909144018B33924098F0A9
:100F000080914501909146018231924060F080913C
:100F10004501909146018B33924028F481E090E0A6
:100F20009A8389839CC080914301909144018231CE
:100F3000924098F48091450190914601823192400F
:100F400060F080914501909146018B33924028F4E6
:100F500082E090E09A83898382C0809145019091DC
:100F600046018B33924098F0809143019091440167
:100F70008231924060F080914301909144018B3323
:100F8000924028F483E090E09A83898368C080913E
:100F90004501909146018231924098F4809143013D
:100FA000909144018231924060F080914301909190
:100FB00044018B33924028F484E090E09A83898343
:100FC0004EC080914301909144018B33924060F078
:100FD00080914501909146018231924028F485E04C
:100FE00090E09A8389833BC08091430190914401B2
:100FF0008B33924060F080914501909146018B3394
:10100000924028F086E090E09A83898328C08091FE
:101010004301909144018231924060F480914501F6
:10102000909146018231924028F487E090E09A83C3
:10103000898315C08091430190914401823192408F
:1010400008F0C7C180914501909146018B339240D1
:1010500008F4BFC188E090E09A838983BAC1B9C11E
:10106000809143019091440182319240C0F080917F
:101070004301909144018B33924088F48091450163
:10108000909146018231924050F0809145019091BB
:1010900046018B33924018F41A821982B6C08091AF
:1010A0004301909144018B33924098F08091450127
:1010B000909146018231924060F08091450190917B
:1010C00046018B33924028F481E090E09A83898333
:1010D0009CC080914301909144018231924098F4E8
:1010E00080914501909146018231924060F080915B
:1010F0004501909146018B33924028F482E090E0C4
:101100009A83898382C080914501909146018B33F7
:10111000924098F080914301909144018231924035
:1011200060F080914301909144018B33924028F408
:1011300083E090E09A83898368C080914501909113
:1011400046018231924098F480914301909144018C
:101150008231924060F080914301909144018B3341
:10116000924028F484E090E09A8389834EC0809175
:101170004301909144018B33924060F0809145018E
:10118000909146018231924028F485E090E09A8364
:1011900089833BC080914301909144018B339240FD
:1011A00060F080914501909146018B33924028F088
:1011B00086E090E09A83898328C0809143019091D2
:1011C00044018231924060F4809145019091460142
:1011D0008231924028F487E090E09A83898315C099
:1011E00080914301909144018231924008F0F3C014
:1011F00080914501909146018B33924008F4EBC0F9
:1012000088E090E09A838983E6C0E5C0809143013D
:101210009091440182319240C0F0809143019091BD
:1012200044018B33924088F48091450190914601AE
:101230008231924050F080914501909146018B336C
:10124000924018F41A821982B4C08091430190919F
:1012500044018B33924098F0809145019091460172
:101260008231924060F080914501909146018B332C
:10127000924028F481E090E09A8389839AC080911B
:101280004301909144018231924098F4809145014C
:10129000909146018231924060F080914501909199
:1012A00046018B33924028F482E090E09A83898350
:1012B00080C080914501909146018B33924098F017
:1012C00080914301909144018231924060F080917D
:1012D0004301909144018B33924028F483E090E0E5
:1012E0009A83898366C0809145019091460182313D
:1012F000924098F480914301909144018231924050
:1013000060F080914301909144018B33924028F426
:1013100084E090E09A8389834CC08091430190914E
:1013200044018B33924060F08091450190914601D9
:101330008231924028F485E090E09A83898339C015
:1013400080914301909144018B33924060F08091F1
:101350004501909146018B33924028F086E090E061
:101360009A83898326C08091430190914401823100
:10137000924060F480914501909146018231924003
:1013800028F487E090E09A83898313C08091430119
:10139000909144018231924000F5809145019091F5
:1013A00046018B339240C8F088E090E09A838983AD
:1013B00014C013C01A82198211C000000FC00000AF
:1013C0000DC000000BC0000009C0000007C00000F5
:1013D00005C0000003C0000001C0000089819A819F
:1013E000092E000CAA0BBB0B40E050E028E030E0D7
:1013F000841B950B2817390708F4F0C0815B9F4FB9
:10140000FC010C94DC0C80911401813021F481E00A
:1014100080931401D4C080911401823008F4CFC0AD
:1014200080911401869580931401C9C080911401A4
:10143000803821F480E880931401C3C080911401A6
:1014400088230CF4BEC080911401880F809314018E
:10145000B8C080911501813021F481E0809315019D
:10146000B2C080911501823008F4ADC080911501A1
:10147000869580931501A7C080911501803121F4D4
:1014800080E180931501A1C080911501803108F0A1
:101490009CC080911501880F8093150196C08091A2
:1014A0001401813021F481E08093140109C08091FE
:1014B0001401823028F080911401869580931401E4
:1014C00080911501803121F480E1809315017FC066
:1014D00080911501803108F07AC080911501880F44
:1014E0008093150174C080911401813021F481E052
:1014F0008093140109C080911401823028F08091FA
:10150000140186958093140180911501813021F496
:1015100081E0809315015DC080911501823008F44F
:1015200058C08091150186958093150152C0809115
:101530001401803821F480E88093140109C080915F
:10154000140188232CF080911401880F80931401DA
:1015500080911501803121F480E1809315013BC019
:10156000809115018031B8F580911501880F809325
:10157000150131C080911401803821F480E88093F6
:10158000140109C08091140188232CF0809114016A
:10159000880F8093140180911501813021F481E03E
:1015A000809315011AC0809115018230B0F08091AE
:1015B000150186958093150110C000000FC0000032
:1015C0000DC000000BC0000009C0000007C00000F3
:1015D00005C0000003C0000001C0000089819A819D
:1015E0000F900F90DF91CF910895CF93DF9300D0AC
:1015F000CDB7DEB79A83898389819A81892B19F4C3
:101600001A82198203C01A821982000089819A8184
:10161000892B71F488E290E020911401FC01208371
:101620008BE290E0209115012095FC0120830000C1
:1016300089819A810F900F90DF91CF9108950F9338
:101640001F93CF93DF93CDB7DEB760970FB6F894B3
:10165000DEBF0FBECDBF81E290E0FC01108282E2CE
:1016600090E02FEFFC01208387E290E02FEFFC0158
:10167000208388E290E0FC0110828AE290E02FE172
:10168000FC0120838BE290E0FC01108286E0E6E121
:10169000F1E0DE011B9601900D928A95E1F783E05F
:1016A00090E09A8789871092220189E190E0A0E07A
:1016B000B0E08093230190932401A0932501B0937F
:1016C00026018091230190912401A0912501B091E0
:1016D00026018093270190932801A0932901B093BC
:1016E0002A0183E092E090932C0180932B011092C9
:1016F0002D0184E690E0A0E0B0E080932E0190936D
:101700002F01A0933001B093310180912E0190916F
:101710002F01A0913001B09131018093320190935B
:101720003301A0933401B093350188E392E09093A4
:101730003701809336011092380182E390E0A0E0F7
:10174000B0E08093390190933A01A0933B01B093AC
:101750003C018091390190913A01A0913B01B091F7
:101760003C0180933D0190933E01A0933F01B093D3
:10177000400185EF9AE090934201809341018B856F
:101780009C85FC0181819281A381B48189839A83A4
:10179000AB83BC8381E090E09E838D8325C08D81E7
:1017A0009E81880F991F9E012F5F3F4F820F931FCD
:1017B0000A96FC0180819181FC0121813281438163
:1017C000548189819A81AB81BC81BC01CD010E9489
:1017D0008001DC01CB0189839A83AB83BC838D813B
:1017E0009E8101969E838D832D813E8189859A8578
:1017F00028173907A0F289819A81AB81BC81BC018D
:10180000CD010E94A2000E94D0000E94CD01188646
:101810001F82A0C08F819885880F991F9E012F5F1E
:101820003F4F820F931F0A96FC0180819181FC013A
:1018300025813681478150858F819885880F991F32
:10184000BE016F5F7F4F860F971F0A96FC01808154
:101850009181FC0181819281A381B481281739078C
:101860004A075B0709F045C08F819885880F991F4B
:101870009E012F5F3F4F820F931F0A96FC0100814C
:1018800011818F819885880F991F9E012F5F3F4F8F
:10189000820F931F0A96FC0180819181FC012185B2
:1018A00032858F819885880F991FAE014F5F5F4FFA
:1018B000840F951F0A96FC0180819181FC01808133
:1018C000082E000C990BF9010995F80180838F818E
:1018D0009885880F991F9E012F5F3F4F820F931F9E
:1018E0000A96FC0180819181FC0115821682178283
:1018F00010868F819885880F991F9E012F5F3F4F1B
:10190000820F931F0A96FC01608171818F819885F7
:10191000880F991F9E012F5F3F4F820F931F0A96DA
:10192000FC0180819181FC012581368147815085B0
:1019300089819A81AB81BC81820F931FA41FB51F3F
:10194000FB0185839683A783B0878F819885019655
:1019500098878F832F81388589859A85281739073D
:1019600008F458CF000080911C018823E1F3109205
:101970001C014DCFA1E21A2EAA1BBB1BFD010DC0FD
:10198000AA1FBB1FEE1FFF1FA217B307E407F5072F
:1019900020F0A21BB30BE40BF50B661F771F881F0B
:1019A000991F1A9469F760957095809590959B01A1
:1019B000AC01BD01CF010895EE0FFF1F0024001CF4
:0E19C0000BBE0790F691E02D0994F894FFCF2E
:1019CE00000000020000000079000000000001008D
:0C19DE0000006400800122012D0138018E
:00000001FF
