:100000000C9446000C9465000C9465000C946500FB
:100010000C9465000C9465000C9465000C946500CC
:100020000C9465000C9465000C9465000C946500BC
:100030000C9465000C940C010C9465000C94650004
:100040000C9465000C9465000C9465000C9465009C
:100050000C9465000C9465000C9465000C9465008C
:100060000C9465000C9465000C9465000C9465007C
:100070000C9465000C9465000C9465000C9465006C
:100080000C9465000C9465000C94650011241FBE4F
:10009000CFEFD0E4DEBFCDBF11E0A0E0B1E0ECE6F1
:1000A000F8E000E00BBF02C007900D92AE32B1073E
:1000B000D9F721E0AEE2B1E001C01D92A134B20750
:1000C000E1F70E94DD030C9434040C940000CF93FC
:1000D000DF9300D01F92CDB7DEB789837B836A831D
:1000E00089818A3031F48A819B81BC018DE00E9434
:1000F000670080EC90E0FC018081882F90E08072A6
:100100009927892BB1F386EC90E02981FC012083AB
:1001100080E090E00F900F900F90DF91CF910895C5
:10012000CF93DF9300D000D0CDB7DEB769837A8359
:100130008B839C8389819A81AB81BC8180930E01E2
:1001400090930F01A0931001B093110180910E01C3
:1001500090910F01A0911001B091110180932F0196
:1001600090933001A0933101B093320100000F90C1
:100170000F900F900F90DF91CF910895CF93DF9361
:10018000CDB7DEB781E890E02BE0FC01208388E862
:1001900090E02DE730E0FC01318320838FE690E092
:1001A00022E0FC01208384E890E0FC0111821082AF
:1001B00080910E0190910F01A0911001B091110159
:1001C00080932F0190933001A0933101B0933201BD
:1001D0008FE590E02FE530E0F90120812068FC01F7
:1001E00020830000DF91CF910895CF93DF93CDB7A7
:1001F000DEB781E890E0FC0110820000DF91CF9132
:100200000895CF93DF93CDB7DEB781E080932E01C1
:100210000000DF91CF9108951F920F9200905F0030
:100220000F92112400905B000F922F933F934F93F6
:100230005F936F937F938F939F93AF93BF93EF934E
:10024000FF93CF93DF93CDB7DEB780912F019091CD
:100250003001A0913101B09132010197A109B1099A
:1002600080932F0190933001A0933101B09332011C
:1002700080912F0190913001A0913101B091320114
:10028000892B8A2B8B2B91F40E94010180910E0106
:1002900090910F01A0911001B091110180932F0155
:1002A00090933001A0933101B09332010000DF91AF
:1002B000CF91FF91EF91BF91AF919F918F917F91DE
:1002C0006F915F914F913F912F910F9000925B0042
:1002D0000F9000925F000F901F901895CF93DF93BF
:1002E000CDB7DEB728970FB6F894DEBF0FBECDBFEF
:1002F00098878F838F819885892B19F418861F82A0
:1003000002C018861F828F819885892B09F015C13C
:100310008091330190913401029750F48091330120
:1003200090913401019690933401809333010AC077
:100330008091330190913401029721F4109234019D
:10034000109233018091330190913401880F991FED
:100350008E5E9E4FFC018081918190933801809345
:10036000370180912C0190912D01892B49F58091C5
:100370001C0190911D018038910510F51A82198297
:100380001AC089819A81880F991F885E9E4FFC014F
:10039000808191819C01220F331F89819A81880F6E
:1003A000991F885E9E4FFC013183208389819A8149
:1003B00001969A83898389819A81039714F35BC09C
:1003C00080912C0190912D01019731F51C821B82A7
:1003D0001EC08B819C81880F991F825E9E4FFC01FD
:1003E000808191819C01220F331F220F331F220F26
:1003F000331F8B819C81880F991F885E9E4FFC0163
:10040000318320838B819C8101969C838B838B819C
:100410009C810397F4F22FC080912C0190912D01C3
:10042000029749F58091180190911901059718F1EB
:100430001E821D821CC08D819E81880F991F8C5D3C
:100440009E4FFC01808191819C01220F331F220F5E
:10045000331F8D819E81880F991F885E9E4FFC01FE
:10046000318320838D819E8101969E838D838D8132
:100470009E81039704F38091330190913401880F9A
:10048000991F885E9E4FFC01808191818095909597
:100490009093400180933F0180912A0190912B011C
:1004A000892B69F480913701909138019695879551
:1004B0009695879590933801809337013DC0809140
:1004C0002A0190912B01019759F480913701909165
:1004D00038019695879590933801809337012CC009
:1004E00080912A0190912B01039759F48091370153
:1004F00090913801880F991F9093380180933701AC
:100500001BC080912A0190912B01049769F480917E
:10051000370190913801880F991F880F991F909388
:1005200038018093370108C08091370190913801DC
:1005300090933801809337010000809137019091AA
:10054000380190933C0180933B0180913F01909151
:10055000400190933E0180933D018F8198852896BC
:100560000FB6F894DEBF0FBECDBFDF91CF910895D7
:10057000CF93DF9300D0CDB7DEB79A83898389818B
:100580009A81892B19F41A82198202C01A8219825F
:1005900089819A81892B09F077C080E290E0FC0183
:1005A0008081882F90E080749927892B89F480912D
:1005B0002C0190912D01029708F065C080912C01CB
:1005C00090912D01019690932D0180932C015BC099
:1005D00080E290E0FC01808188238CF080912C01E6
:1005E00090912D01892B09F44EC080912C0190919E
:1005F0002D01019790932D0180932C0144C080E23E
:1006000090E0FC018081882F90E080719927892BF0
:1006100081F480912A0190912B010497A0F580919B
:100620002A0190912B01019690932B0180932A012E
:100630002AC080E290E0FC018081882F90E08072E7
:100640009927892B81F480912A0190912B01892B84
:10065000D1F080912A0190912B01019790932B0169
:1006600080932A0110C080912A0190912B019093D0
:100670002B0180932A0180912C0190912D01909360
:100680002D0180932C01000089819A810F900F9099
:10069000DF91CF910895CF93DF9300D01F92CDB714
:1006A000DEB78B831A82198227C088E290E028E0A7
:1006B000FC01208388E290E028E230E0F90120810B
:1006C000422F2B81222F30E0098002C035952795DB
:1006D0000A94E2F72170242BFC01208388E290E049
:1006E00028E230E0F90120812260FC012083898129
:1006F0009A8101969A83898389819A810897ACF2BD
:1007000088E290E028E230E0F90120812460FC01D9
:10071000208388E290E0FC01108200000F900F908F
:100720000F90DF91CF910895CF93DF9300D01F9268
:10073000CDB7DEB78B831A82198227C08BE290E097
:1007400028E0FC0120838BE290E02BE230E0F9010D
:100750002081422F2B81222F30E0098002C0359565
:1007600027950A94E2F72170242BFC0120838BE269
:1007700090E02BE230E0F90120812260FC0120832F
:1007800089819A8101969A83898389819A810897C0
:10079000ACF28BE290E02BE230E0F90120812460A2
:1007A000FC0120838BE290E0FC01108200000F909E
:1007B0000F900F90DF91CF910895CF93DF9300D0EA
:1007C000CDB7DEB71A82198281E290E0FC01108277
:1007D00082E290E02FEFFC01208387E290E02FEF90
:1007E000FC01208388E290E0FC0110828AE290E024
:1007F0002FEFFC0120838BE290E0FC01108261E08E
:1008000070E080E090E00E9490000E94BE0089812C
:100810009A818337910534F489819A8101969A836C
:10082000898308C01A8219828091390190913A0116
:100830000E94B80280913501909136010E946E01AC
:1008400080913B0190913C010E944B0380913D01BE
:1008500090913E010E949403000080912E01882314
:0C086000E1F310922E01D3CFF894FFCFEB
:10086C000000000200000000670000000000010012
:10087C0000003C0024003C000200040008000200C0
:0E088C00040008000200040008000200010041
:00000001FF
