:100000000C9446000C9465000C9465000C946500FB
:100010000C9465000C9465000C9465000C946500CC
:100020000C9465000C9465000C9465000C946500BC
:100030000C9465000C940C010C9465000C94650004
:100040000C9465000C9465000C9465000C9465009C
:100050000C9465000C9465000C9465000C9465008C
:100060000C9465000C9465000C9465000C9465007C
:100070000C9465000C9465000C9465000C9465006C
:100080000C9465000C9465000C94650011241FBE4F
:10009000CFEFD0E4DEBFCDBF11E0A0E0B1E0E6EAF3
:1000A000F6E000E00BBF02C007900D92A032B1074E
:1000B000D9F721E0A0E2B1E001C01D92A932B20758
:1000C000E1F70E9410030C9451030C940000CF93AD
:1000D000DF9300D01F92CDB7DEB789837B836A831D
:1000E00089818A3031F48A819B81BC018DE00E9434
:1000F000670080EC90E0FC018081882F90E08072A6
:100100009927892BB1F386EC90E02981FC012083AB
:1001100080E090E00F900F900F90DF91CF910895C5
:10012000CF93DF9300D000D0CDB7DEB769837A8359
:100130008B839C8389819A81AB81BC8180930E01E2
:1001400090930F01A0931001B093110180910E01C3
:1001500090910F01A0911001B091110180932101A4
:1001600090932201A0932301B093240100000F90EB
:100170000F900F900F90DF91CF910895CF93DF9361
:10018000CDB7DEB781E890E02BE0FC01208388E862
:1001900090E02DE730E0FC01318320838FE690E092
:1001A00022E0FC01208384E890E0FC0111821082AF
:1001B00080910E0190910F01A0911001B091110159
:1001C0008093210190932201A0932301B0932401F5
:1001D0008FE590E02FE530E0F90120812068FC01F7
:1001E00020830000DF91CF910895CF93DF93CDB7A7
:1001F000DEB781E890E0FC0110820000DF91CF9132
:100200000895CF93DF93CDB7DEB781E080932001CF
:100210000000DF91CF9108951F920F9200905F0030
:100220000F92112400905B000F922F933F934F93F6
:100230005F936F937F938F939F93AF93BF93EF934E
:10024000FF93CF93DF93CDB7DEB7809121019091DB
:100250002201A0912301B09124010197A109B109C4
:100260008093210190932201A0932301B093240154
:100270008091210190912201A0912301B09124014C
:10028000892B8A2B8B2B91F40E94010180910E0106
:1002900090910F01A0911001B09111018093210163
:1002A00090932201A0932301B09324010000DF91D9
:1002B000CF91FF91EF91BF91AF919F918F917F91DE
:1002C0006F915F914F913F912F910F9000925B0042
:1002D0000F9000925F000F901F901895CF93DF93BF
:1002E00000D0CDB7DEB79A83898389819A81892B23
:1002F00019F41A82198202C01A82198289819A819C
:10030000892B09F06BC080912601843030F48091F4
:1003100026018F5F8093260106C0809126018430DC
:1003200011F41092260180912601882F90E0895EB9
:100330009E4FFC01808180931C0180911D018823C8
:1003400069F480912601882F90E08E5E9E4FFC011B
:100350008081880F880F809325013FC080911D0107
:10036000813061F480912601882F90E08E5E9E4F4F
:10037000FC018081880F809325012FC080911D0191
:10038000823059F480912601882F90E08E5E9E4F36
:10039000FC0180818093250120C080911D01833064
:1003A00061F480912601882F90E08E5E9E4FFC01C3
:1003B000808186958093250110C080911D01843035
:1003C00061F480912601882F90E08E5E9E4FFC01A3
:1003D00080818695869580932501000088E290E0D3
:1003E00020912501FC0120838BE290E020911C01EB
:1003F000FC01208389819A810F900F90DF91CF912A
:100400000895CF93DF9300D0CDB7DEB79A83898369
:1004100089819A818230910509F454C08330910515
:1004200034F4009781F0019709F447C0AAC08430E2
:10043000910509F451C0843091050CF448C005972A
:1004400009F44FC09EC080E290E0FC0180818823C7
:100450002CF081E090E09A8389832FC080E290E0C5
:10046000FC018081882F90E080749927892B29F4E2
:1004700082E090E09A83898320C080E290E0FC01D2
:100480008081882F90E080729927892B29F483E05E
:1004900090E09A83898311C080E290E0FC01808122
:1004A000882F90E080719927892B29F484E090E0CF
:1004B0009A83898302C01A82198285E090E09A8328
:1004C000898363C085E090E09A8389835EC085E07C
:1004D00090E09A83898359C085E090E09A8389836C
:1004E00054C080E290E0FC0180818823F4F480E233
:1004F00090E0FC018081882F90E080749927892BFF
:10050000A1F080E290E0FC018081882F90E0807271
:100510009927892B51F080E290E0FC018081882F9F
:1005200090E080719927892B29F485E090E09A83E7
:1005300089832AC080E290E0FC018081882324F531
:1005400080E290E0FC018081882F90E08074992700
:10055000892BD1F080E290E0FC018081882F90E02F
:1005600080729927892B81F080E290E0FC018081E4
:10057000882F90E080719927892B31F01A82198297
:1005800003C01A82198201C0000089819A818230D9
:100590009105C1F0833091052CF4009789F1019702
:1005A00039F037C08430910509F10497ACF031C0BF
:1005B00080911E01823030F580911E018F5F809303
:1005C0001E0120C080911E018823F1F080911E0140
:1005D000815080931E0118C080911D018823B1F0C5
:1005E00080911D01815080931D0110C080911D01DB
:1005F000843070F480911D018F5F80931D0108C0CD
:10060000000007C0000005C0000003C0000001C0DA
:10061000000089819A810F900F90DF91CF9108950A
:10062000CF93DF9300D000D0CDB7DEB71A82198206
:100630001C821B8281E290E0FC01108282E290E049
:100640002FEFFC01208387E290E02FEFFC01208355
:1006500088E290E0FC0110828AE290E02FEFFC013A
:1006600020838BE290E0FC01108268EC70E080E077
:1006700090E00E9490000E94BE001A8219821C82A3
:100680001B8289819A810E946E018B819C810E94CC
:1006900001020000809120018823E1F310922001E3
:0606A000F0CFF894FFCF3B
:1006A60000000002000000006700000000000100DA
:1006B6000000003C243C00FFFDFBF7FFFF020100A9
:00000001FF
