:100000000C9446000C9465000C9465000C946500FB
:100010000C9465000C9465000C9465000C946500CC
:100020000C9465000C9465000C9465000C946500BC
:100030000C9465000C940C010C9465000C94650004
:100040000C9465000C9465000C9465000C9465009C
:100050000C9465000C9465000C9465000C9465008C
:100060000C9465000C9465000C9465000C9465007C
:100070000C9465000C9465000C9465000C9465006C
:100080000C9465000C9465000C94650011241FBE4F
:10009000CFEFD0E4DEBFCDBF11E0A0E0B1E0ECE1F6
:1000A000F7E000E00BBF02C007900D92A832B10745
:1000B000D9F721E0A8E2B1E001C01D92A733B20751
:1000C000E1F70E9441030C948C030C940000CF9341
:1000D000DF9300D01F92CDB7DEB789837B836A831D
:1000E00089818A3031F48A819B81BC018DE00E9434
:1000F000670080EC90E0FC018081882F90E08072A6
:100100009927892BB1F386EC90E02981FC012083AB
:1001100080E090E00F900F900F90DF91CF910895C5
:10012000CF93DF9300D000D0CDB7DEB769837A8359
:100130008B839C8389819A81AB81BC8180930E01E2
:1001400090930F01A0931001B093110180910E01C3
:1001500090910F01A0911001B0911101809329019C
:1001600090932A01A0932B01B0932C0100000F90D3
:100170000F900F900F90DF91CF910895CF93DF9361
:10018000CDB7DEB781E890E02BE0FC01208388E862
:1001900090E02DE730E0FC01318320838FE690E092
:1001A00022E0FC01208384E890E0FC0111821082AF
:1001B00080910E0190910F01A0911001B091110159
:1001C0008093290190932A01A0932B01B0932C01D5
:1001D0008FE590E02FE530E0F90120812068FC01F7
:1001E00020830000DF91CF910895CF93DF93CDB7A7
:1001F000DEB781E890E0FC0110820000DF91CF9132
:100200000895CF93DF93CDB7DEB781E080932801C7
:100210000000DF91CF9108951F920F9200905F0030
:100220000F92112400905B000F922F933F934F93F6
:100230005F936F937F938F939F93AF93BF93EF934E
:10024000FF93CF93DF93CDB7DEB7809129019091D3
:100250002A01A0912B01B0912C010197A109B109AC
:100260008093290190932A01A0932B01B0932C0134
:100270008091290190912A01A0912B01B0912C012C
:10028000892B8A2B8B2B91F40E94010180910E0106
:1002900090910F01A0911001B0911101809329015B
:1002A00090932A01A0932B01B0932C010000DF91C1
:1002B000CF91FF91EF91BF91AF919F918F917F91DE
:1002C0006F915F914F913F912F910F9000925B0042
:1002D0000F9000925F000F901F901895CF93DF93BF
:1002E000CDB7DEB728970FB6F894DEBF0FBECDBFEF
:1002F00098878F838F819885892B19F418861F82A0
:1003000002C018861F828F819885892B09F00BC146
:1003100080912D0190912E01029750F480912D0132
:1003200090912E01019690932E0180932D010AC089
:1003300080912D0190912E01029721F410922E01AF
:1003400010922D0180912D0190912E01880F991FFF
:100350008E5E9E4FFC01808191819093320180934B
:1003600031018091260190912701892B41F58091DF
:100370001C0190911D01409710F51A8219821AC034
:1003800089819A81880F991F885E9E4FFC01808128
:1003900091819C01220F331F89819A81880F991FB7
:1003A000885E9E4FFC013183208389819A8101966A
:1003B0009A83898389819A81039714F352C080912B
:1003C0002601909127010197F9F41C821B8217C026
:1003D0008B819C81880F991F825E9E4FFC0120813A
:1003E00031818B819C81880F991F885E9E4FFC0113
:1003F000318320838B819C8101969C838B838B81AD
:100400009C8103972CF32DC08091260190912701A8
:10041000029739F58091180190911901029708F11E
:100420001E821D821AC08D819E81880F991F885E51
:100430009E4FFC01808191819C01369527958D818D
:100440009E81880F991F885E9E4FFC013183208317
:100450008D819E8101969E838D838D819E810397E0
:1004600014F380912D0190912E01880F991F885EC1
:100470009E4FFC01808191818095909590933601EB
:10048000809335018091240190912501892B69F495
:100490008091310190913201969587959695879537
:1004A00090933201809331013DC08091240190915D
:1004B0002501019759F4809131019091320196956F
:1004C000879590933201809331012CC08091240153
:1004D00090912501039759F4809131019091320157
:1004E000880F991F90933201809331011BC0809136
:1004F000240190912501049769F480913101909134
:100500003201880F991F880F991F909332018093B1
:10051000310108C0809131019091320190933201F4
:1005200080933101000088E290E020913101309108
:100530003201FC0120838BE290E020913501309163
:100540003601FC0120838F81988528960FB6F89498
:10055000DEBF0FBECDBFDF91CF910895CF93DF9364
:1005600000D0CDB7DEB79A83898389819A81892BA0
:1005700019F41A82198202C01A82198289819A8119
:10058000892B09F077C080E290E0FC01808188230C
:100590008CF08091260190912701029708F069C0A4
:1005A00080912601909127010196909327018093D5
:1005B00026015FC080E290E0FC018081882F90E0FE
:1005C00080749927892B89F48091260190912701C5
:1005D000892B09F44EC08091260190912701019743
:1005E000909327018093260144C080E290E0FC01B3
:1005F0008081882F90E080729927892B81F48091E7
:100600002401909125010497A0F5809124019091F7
:100610002501019690932501809324012AC080E250
:1006200090E0FC018081882F90E080719927892BD0
:1006300081F48091240190912501892BD1F0809142
:100640002401909125010197909325018093240125
:1006500010C08091240190912501909325018093F1
:100660002401809126019091270190932701809386
:100670002601000089819A810F900F90DF91CF9120
:100680000895CF93DF9300D0CDB7DEB71A821982D9
:1006900081E290E0FC01108282E290E02FEFFC0109
:1006A000208387E290E02FEFFC01208388E290E036
:1006B000FC0110828AE290E02FEFFC0120838BE2A4
:1006C00090E0FC01108261E070E080E090E00E9428
:1006D00090000E94BE0089819A818337910534F48D
:1006E00089819A8101969A83898308C01A82198226
:1006F00080913301909134010E94AE0280912F01CC
:10070000909130010E946E010000809128018823A1
:0C071000E1F310922801DFCFF894FFCF36
:10071C000000000200000000670000000000010063
:10072C0000003C0024003C00020004000800020011
:08073C000400080002000100A6
:00000001FF
