:100000000C9446000C9465000C9465000C946500FB
:100010000C9465000C9465000C9465000C946500CC
:100020000C9465000C9465000C9465000C946500BC
:100030000C9465000C940C010C9465000C94650004
:100040000C9465000C9465000C9465000C9465009C
:100050000C9465000C9465000C9465000C9465008C
:100060000C9465000C9465000C9465000C9465007C
:100070000C9465000C9465000C9465000C9465006C
:100080000C9465000C9465000C94650011241FBE4F
:10009000CFEFD0E4DEBFCDBF11E0A0E0B1E0E2EEF3
:1000A000F4E000E00BBF02C007900D92A432B1074C
:1000B000D9F721E0A4E2B1E001C01D92AA32B20753
:1000C000E1F70E9437020C946F020C940000CF936A
:1000D000DF9300D01F92CDB7DEB789837B836A831D
:1000E00089818A3031F48A819B81BC018DE00E9434
:1000F000670080EC90E0FC018081882F90E08072A6
:100100009927892BB1F386EC90E02981FC012083AB
:1001100080E090E00F900F900F90DF91CF910895C5
:10012000CF93DF9300D000D0CDB7DEB769837A8359
:100130008B839C8389819A81AB81BC8180930E01E2
:1001400090930F01A0931001B093110180910E01C3
:1001500090910F01A0911001B091110180932501A0
:1001600090932601A0932701B093280100000F90DF
:100170000F900F900F90DF91CF910895CF93DF9361
:10018000CDB7DEB781E890E02BE0FC01208388E862
:1001900090E02DE730E0FC01318320838FE690E092
:1001A00022E0FC01208384E890E0FC0111821082AF
:1001B00080910E0190910F01A0911001B091110159
:1001C0008093250190932601A0932701B0932801E5
:1001D0008FE590E02FE530E0F90120812068FC01F7
:1001E00020830000DF91CF910895CF93DF93CDB7A7
:1001F000DEB781E890E0FC0110820000DF91CF9132
:100200000895CF93DF93CDB7DEB781E080932401CB
:100210000000DF91CF9108951F920F9200905F0030
:100220000F92112400905B000F922F933F934F93F6
:100230005F936F937F938F939F93AF93BF93EF934E
:10024000FF93CF93DF93CDB7DEB7809125019091D7
:100250002601A0912701B09128010197A109B109B8
:100260008093250190932601A0932701B093280144
:100270008091250190912601A0912701B09128013C
:10028000892B8A2B8B2B91F40E94010180910E0106
:1002900090910F01A0911001B0911101809325015F
:1002A00090932601A0932701B09328010000DF91CD
:1002B000CF91FF91EF91BF91AF919F918F917F91DE
:1002C0006F915F914F913F912F910F9000925B0042
:1002D0000F9000925F000F901F901895CF93DF93BF
:1002E00000D0CDB7DEB79A83898389819A81813026
:1002F0009105D1F1823091051CF4892B39F066C04B
:1003000082309105B1F10397C9F160C080E290E0BD
:10031000FC01808188237CF480E290E0FC018081F4
:10032000882F90E080749927892B29F481E090E050
:100330009A83898318C080E290E0FC018081882341
:100340007CF080E290E0FC018081882F90E0807456
:100350009927892B29F082E090E09A83898303C052
:100360001A82198237C036C083E090E09A8389836D
:1003700031C083E090E09A8389832CC080E290E0D2
:10038000FC018081882354F480E290E0FC018081AC
:10039000882F90E080749927892B29F483E090E0DE
:1003A0009A83898316C080E290E0FC0180818823D3
:1003B00084F480E290E0FC018081882F90E08074DA
:1003C0009927892B31F01A82198203C01A82198267
:1003D00001C0000089819A818130910531F082301D
:1003E00091058CF10297C1F02FC0809129018830CE
:1003F00028F4809129018F5F809329018091290140
:10040000882F90E0880F991F8E5E9E4FFC0180819F
:1004100091818093220118C080912901882329F0BD
:100420008091290181508093290180912901882F91
:1004300090E0880F991F8E5E9E4FFC018081918114
:100440008093220101C0000088E290E02091220107
:10045000FC0120838BE290E020912301FC012083AA
:1004600089819A810F900F90DF91CF910895CF935A
:10047000DF9300D0CDB7DEB71A82198281E290E017
:10048000FC01108282E290E02FEFFC01208387E2E2
:1004900090E02FEFFC01208388E290E0FC011082C5
:1004A0008AE290E02FEFFC0120838BE290E0FC01D8
:1004B000108264E670E080E090E00E9490000E946C
:1004C000BE001A82198289819A810E946E01000001
:1004D000809124018823E1F310922401F2CFF89453
:0204E000FFCF4C
:1004E20000000002000000006700000000000100A0
:1004F20000008000400020001000080004000200FC
:04050200010080E094
:00000001FF
