:100000000C9446000C9465000C9465000C946500FB
:100010000C9465000C9465000C9465000C946500CC
:100020000C9465000C9465000C9465000C946500BC
:100030000C9465000C940C010C9465000C94650004
:100040000C9465000C9465000C9465000C9465009C
:100050000C9465000C9465000C9465000C9465008C
:100060000C9465000C9465000C9465000C9465007C
:100070000C9465000C9465000C9465000C9465006C
:100080000C9465000C9465000C94650011241FBE4F
:10009000CFEFD0E4DEBFCDBF11E0A0E0B1E0E8EEED
:1000A000F3E000E00BBF02C007900D92AE31B10744
:1000B000D9F721E0AEE1B1E001C01D92A532B2074F
:1000C000E1F70E94BA010C94F2010C940000CF9366
:1000D000DF9300D01F92CDB7DEB789837B836A831D
:1000E00089818A3031F48A819B81BC018DE00E9434
:1000F000670080EC90E0FC018081882F90E08072A6
:100100009927892BB1F386EC90E02981FC012083AB
:1001100080E090E00F900F900F90DF91CF910895C5
:10012000CF93DF9300D000D0CDB7DEB769837A8359
:100130008B839C8389819A81AB81BC8180930E01E2
:1001400090930F01A0931001B093110180910E01C3
:1001500090910F01A0911001B091110180931F01A6
:1001600090932001A0932101B093220100000F90F1
:100170000F900F900F90DF91CF910895CF93DF9361
:10018000CDB7DEB781E890E02BE0FC01208388E862
:1001900090E02DE730E0FC01318320838FE690E092
:1001A00022E0FC01208384E890E0FC0111821082AF
:1001B00080910E0190910F01A0911001B091110159
:1001C00080931F0190932001A0932101B0932201FD
:1001D0008FE590E02FE530E0F90120812068FC01F7
:1001E00020830000DF91CF910895CF93DF93CDB7A7
:1001F000DEB781E890E0FC0110820000DF91CF9132
:100200000895CF93DF93CDB7DEB781E080931E01D1
:100210000000DF91CF9108951F920F9200905F0030
:100220000F92112400905B000F922F933F934F93F6
:100230005F936F937F938F939F93AF93BF93EF934E
:10024000FF93CF93DF93CDB7DEB780911F019091DD
:100250002001A0912101B09122010197A109B109CA
:1002600080931F0190932001A0932101B09322015C
:1002700080911F0190912001A0912101B091220154
:10028000892B8A2B8B2B91F40E94010180910E0106
:1002900090910F01A0911001B091110180931F0165
:1002A00090932001A0932101B09322010000DF91DF
:1002B000CF91FF91EF91BF91AF919F918F917F91DE
:1002C0006F915F914F913F912F910F9000925B0042
:1002D0000F9000925F000F901F901895CF93DF93BF
:1002E00000D0CDB7DEB79A83898389819A81892B23
:1002F00019F41A82198202C01A82198289819A819C
:10030000892B29F580912401843030F480912401D7
:100310008F5F8093240106C080912401843011F402
:100320001092240180912401882F90E08E5E9E4FD0
:10033000FC0180818093230180912401882F90E02B
:10034000895E9E4FFC01808180931C01000088E241
:1003500090E020912301FC0120838BE290E020912A
:100360001C01FC01208389819A810F900F90DF91FD
:10037000CF910895CF93DF9300D0CDB7DEB71A8227
:10038000198281E290E0FC01108282E290E02FEF7E
:10039000FC01208387E290E02FEFFC01208388E2BC
:1003A00090E0FC0110828AE290E02FEFFC012083B4
:1003B0008BE290E0FC01108261E070E080E090E070
:1003C0000E9490000E94BE001A82198289819A813F
:1003D0000E946E01000080911E018823E1F31092BB
:0803E0001E01F2CFF894FFCFDB
:1003E800000000020000000067000000000001009B
:0E03F8000000003C243C00FFFDFBF7FFFF006F
:00000001FF
