:100000000C9446000C9465000C9465000C946500FB
:100010000C9465000C9465000C9465000C946500CC
:100020000C9465000C9465000C9465000C946500BC
:100030000C9465000C9465000C9465000C946500AC
:100040000C9465000C9465000C9465000C9465009C
:100050000C9465000C9465000C9465000C9465008C
:100060000C9465000C9465000C9465000C9465007C
:100070000C9465000C9465000C9465000C9465006C
:100080000C9465000C9465000C94650011241FBE4F
:10009000CFEFD0E4DEBFCDBF11E0A0E0B1E0EEE2F3
:1000A000F8E000E00BBF02C007900D92AE30B10740
:1000B000D9F721E0AEE0B1E001C01D92A731B2074F
:1000C000E1F70E9462020C9415040C940000CF9397
:1000D000DF9300D01F92CDB7DEB789837B836A831D
:1000E00089818A3031F48A819B81BC018DE00E9434
:1000F000670080EC90E0FC018081882F90E08072A6
:100100009927892BB1F386EC90E02981FC012083AB
:1001100080E090E00F900F900F90DF91CF910895C5
:100120000F931F93CF93DF9300D000D0CDB7DEB7EE
:1001300069837A838B839C83809111019091120152
:10014000A0911301B09114019C01AD0169817A81E4
:100150008B819C810E948102882309F477C020E072
:1001600030E0A90169817A818B819C810E948102A2
:10017000882351F481E990E021E930E0F901208100
:100180002870FC01208309C081E990E021E930E07A
:10019000F90120812360FC01208328E539E344E74D
:1001A0005FE369817A818B819C810E94810288232F
:1001B00044F488E990E02FEF3FEFFC013183208386
:1001C00034C020E034E244EF56E469817A818B81C7
:1001D0009C810E94A303181634F488E990E0FC0186
:1001E0001182108222C008E910E020E030E040E0F7
:1001F00053E469817A818B819C810E94A803DC0190
:10020000CB019C01AD0160E074E284EF9AE40E94AE
:100210008602DC01CB01BC01CD010E94F802DC01A9
:10022000CB010197F8019183808384E990E0FC0180
:100230001182108289819A81AB81BC8180931101E6
:1002400090931201A0931301B093140100000F903A
:100250000F900F900F90DF91CF911F910F91089504
:10026000CF93DF93CDB7DEB780E990E020E4FC01C7
:10027000208381E990E02BE0FC01208360E070E0C6
:10028000CB010E9490000000DF91CF910895CF93A1
:10029000DF93CDB7DEB780E990E0FC01108281E901
:1002A00090E0FC0110820000DF91CF910895CF9380
:1002B000DF93CDB7DEB780E290E0FC018081882F2C
:1002C00090E08170992721E0892B09F020E0822FAE
:1002D00080930E0180E290E0FC0180818095827025
:1002E00080930F0180E290E0FC0180818095847012
:1002F0008093100180911501909116018230910533
:1003000009F458C08330910528F4009759F00197FB
:1003100081F09EC08330910509F466C0049709F40A
:100320007DC096C081E090E0909316018093150106
:1003300094C080910E01882379F080910F01882369
:1003400059F480911001882339F482E090E0909371
:100350001601809315012DC080910E01882379F438
:1003600080910F01882359F080911001882339F47E
:1003700083E090E090931601809315011AC080915C
:100380000E01882379F480910F01882359F480911C
:100390001001882339F084E090E090931601809357
:1003A000150107C081E090E090931601809315013C
:1003B00054C053C080910E01882379F080910F01C1
:1003C000882359F480911001882339F482E090E069
:1003D000909316018093150140C081E090E09093C6
:1003E00016018093150139C080910E01882379F49C
:1003F00080910F01882359F080911001882339F4EE
:1004000083E090E0909316018093150126C081E06F
:1004100090E090931601809315011FC080910E010A
:10042000882379F480910F01882359F48091100179
:10043000882339F084E090E09093160180931501B1
:100440000CC081E090E0909316018093150105C0E7
:1004500010921601109215010000809115019091E3
:10046000160182309105A1F08330910528F40097A0
:1004700021F1019739F022C08330910581F0049772
:10048000A9F01CC060E070E0CB010E94900016C093
:1004900064EA70ED82E893E40E9490000FC06BE77D
:1004A00074ED82E993E40E94900008C064EA70ED64
:1004B00084EA93E40E94900001C000000000DF91F4
:1004C000CF910895CF93DF93CDB7DEB781E290E06F
:1004D000FC01108282E290E02FEFFC01208384E295
:1004E00090E02FEFFC01208385E290E0FC01108278
:1004F0000E94300110921601109215010E945701BE
:10050000FDCF0E942E0308F481E008950E949A0214
:100510000C9469030E94620358F00E945B0340F050
:1005200029F45F3F29F00C94520351110C949D0360
:100530000C9458030E947A0368F39923B1F355236E
:1005400091F3951B550BBB27AA27621773078407E6
:1005500038F09F5F5F4F220F331F441FAA1FA9F37C
:1005600035D00E2E3AF0E0E832D091505040E6956A
:10057000001CCAF72BD0FE2F29D0660F771F881FCB
:10058000BB1F261737074807AB07B0E809F0BB0BBE
:10059000802DBF01FF2793585F4F3AF09E3F5105D2
:1005A00078F00C9452030C949D035F3FE4F3983E63
:1005B000D4F3869577956795B795F7959F5FC9F7BB
:1005C000880F911D9695879597F90895E1E0660F3C
:1005D000771F881FBB1F621773078407BA0720F0B5
:1005E000621B730B840BBA0BEE1F88F7E09508951E
:1005F0000E94FF026894B1110C949D0308950E941B
:10060000820388F09F5798F0B92F9927B751B0F01F
:10061000E1F0660F771F881F991F1AF0BA95C9F786
:1006200014C0B13091F00E949C03B1E008950C9485
:100630009C03672F782F8827B85F39F0B93FCCF338
:10064000869577956795B395D9F73EF49095809503
:10065000709561957F4F8F4F9F4F0895990F0008B8
:10066000550FAA0BE0E8FEEF16161706E807F90784
:10067000C0F012161306E407F50798F0621B730B1F
:10068000840B950B39F40A2661F0232B242B252BA0
:1006900021F408950A2609F4A140A6958FEF811D43
:1006A000811D089597F99F6780E870E060E00895E4
:1006B0009FEF80EC089500240A941616170618067A
:1006C0000906089500240A94121613061406050656
:1006D0000895092E0394000C11F4882352F0BB0FE7
:1006E00040F4BF2B11F460FF04C06F5F7F4F8F4F4A
:1006F0009F4F089557FD9058440F551F59F05F3F85
:1007000071F04795880F97FB991F61F09F3F79F033
:1007100087950895121613061406551FF2CF4695B5
:10072000F1DF08C0161617061806991FF1CF869537
:100730007105610508940895E894BB27662777271B
:10074000CB0197F908950E942E0308F48FEF0895C6
:100750000E94BB030C9469030E945B0338F00E9463
:10076000620320F0952311F00C9452030C9458036B
:1007700011240C949D030E947A0370F3959FC1F39A
:10078000950F50E0551F629FF001729FBB27F00D3F
:10079000B11D639FAA27F00DB11DAA1F649F662794
:1007A000B00DA11D661F829F2227B00DA11D621FE3
:1007B000739FB00DA11D621F839FA00D611D221F9D
:1007C000749F3327A00D611D231F849F600D211D81
:1007D000822F762F6A2F11249F5750409AF0F1F004
:1007E00088234AF0EE0FFF1FBB1F661F771F881F6D
:1007F00091505040A9F79E3F510580F00C94520350
:100800000C949D035F3FE4F3983ED4F3869577956F
:100810006795B795F795E7959F5FC1F7FE2B880F12
:0E082000911D9695879597F90895F894FFCF4E
:0E082E00000000020000000067000000000053
:00000001FF
