:100000000C9458000C9477000C9477000C947700B3
:100010000C9477000C9477000C9477000C94770084
:100020000C9477000C9477000C9477000C94770074
:100030000C9477000C941E010C9477000C947700BC
:100040000C9477000C9477000C9477000C94770054
:100050000C9477000C9477000C9477000C94770044
:100060000C9477000C9477000C9477000C94770034
:100070000C9477000C9477000C9477000C94770024
:100080000C9477000C9477000C947700CB03D20388
:10009000D903E003E703EE03F503FC0303042104A3
:1000A000250429042D043104350439043D04410498
:1000B00011241FBECFEFD0E4DEBFCDBF11E0A0E022
:1000C000B1E0EAEAFAE000E00BBF02C007900D924F
:1000D000A431B107D9F721E0A4E1B1E001C01D923C
:1000E000A432B207E1F70E940A050C9453050C9460
:1000F0000000CF93DF9300D01F92CDB7DEB7898386
:100100007B836A8389818A3031F48A819B81BC0137
:100110008DE00E94790080EC90E0FC018081882FC6
:1001200090E080729927892BB1F386EC90E02981C9
:10013000FC01208380E090E00F900F900F90DF9102
:10014000CF910895CF93DF9300D000D0CDB7DEB725
:1001500069837A838B839C8389819A81AB81BC81FB
:1001600080930E0190930F01A0931001B0931101A1
:1001700080910E0190910F01A0911001B091110199
:100180008093150190931601A0931701B093180165
:1001900000000F900F900F900F90DF91CF91089576
:1001A000CF93DF93CDB7DEB781E890E02BE0FC0181
:1001B000208388E890E02DE730E0FC013183208344
:1001C0008FE690E022E0FC01208384E890E0FC01CF
:1001D0001182108280910E0190910F01A091100167
:1001E000B09111018093150190931601A09317010E
:1001F000B09318018FE590E02FE530E0F901208100
:100200002068FC0120830000DF91CF910895CF93F7
:10021000DF93CDB7DEB781E890E0FC0110820000EB
:10022000DF91CF910895CF93DF93CDB7DEB781E013
:10023000809314010000DF91CF9108951F920F92D7
:1002400000905F000F92112400905B000F922F939B
:100250003F934F935F936F937F938F939F93AF934E
:10026000BF93EF93FF93CF93DF93CDB7DEB780912A
:10027000150190911601A0911701B09118010197F5
:10028000A109B1098093150190931601A09317015C
:10029000B09318018091150190911601A09117015A
:1002A000B0911801892B8A2B8B2B91F40E9413019A
:1002B00080910E0190910F01A0911001B091110158
:1002C0008093150190931601A0931701B093180124
:1002D0000000DF91CF91FF91EF91BF91AF919F917E
:1002E0008F917F916F915F914F913F912F910F90DF
:1002F00000925B000F9000925F000F901F90189586
:10030000CF93DF93CDB7DEB780911A0190911B0197
:100310008130910509F478C08130910540F0823038
:10032000910509F4DEC0039709F446C165C189E26D
:1003300090E0FC018081882F90E081709927892BC3
:1003400079F089E290E0FC018081882F90E0827052
:100350009927892B29F010921B0110921A0153C082
:1003600089E290E0FC018081882F90E081709927DC
:10037000892B89F489E290E0FC018081882F90E04C
:1003800082709927892B39F081E090E090931B01CE
:1003900080931A0138C089E290E0FC018081882FA7
:1003A00090E081709927892B89F089E290E0FC0127
:1003B0008081882F90E082709927892B39F482E020
:1003C00090E090931B0180931A011DC089E290E098
:1003D000FC018081882F90E081709927892B09F09A
:1003E00010C189E290E0FC018081882F90E082704A
:1003F0009927892B09F005C183E090E090931B01B8
:1004000080931A01FEC0FDC089E290E0FC0180816A
:10041000882F90E081709927892B89F089E290E0FC
:10042000FC018081882F90E082709927892B39F018
:1004300081E090E090931B0180931A0151C089E202
:1004400090E0FC018081882F90E081709927892BB2
:1004500089F489E290E0FC018081882F90E082702D
:100460009927892B39F082E090E090931B018093CB
:100470001A0136C089E290E0FC018081882F90E06B
:1004800081709927892B79F089E290E0FC018081C5
:10049000882F90E082709927892B29F410921B01F4
:1004A00010921A011DC089E290E0FC018081882F22
:1004B00090E081709927892B09F0A5C089E290E02E
:1004C000FC018081882F90E082709927892B09F0A8
:1004D0009AC083E090E090931B0180931A0193C02F
:1004E00092C089E290E0FC018081882F90E08170C9
:1004F0009927892B89F089E290E0FC018081882F7F
:1005000090E082709927892B39F082E090E09093F7
:100510001B0180931A014FC089E290E0FC018081A9
:10052000882F90E081709927892B79F489E290E0F7
:10053000FC018081882F90E082709927892B29F017
:1005400010921B0110921A0136C089E290E0FC0162
:100550008081882F90E081709927892B89F089E22A
:1005600090E0FC018081882F90E082709927892B90
:1005700039F481E090E090931B0180931A011BC035
:1005800089E290E0FC018081882F90E081709927BA
:10059000892BD9F589E290E0FC018081882F90E0D9
:1005A00082709927892B89F583E090E090931B0155
:1005B00080931A012AC029C089E290E0FC01808161
:1005C000882F90E081709927892B79F489E290E057
:1005D000FC018081882F90E082709927892B29F473
:1005E00010921B0110921A0111C083E090E09093C9
:1005F0001B0180931A010AC010921B0110921A016C
:1006000005C0000003C0000001C0000080911A0175
:1006100090911B018130910561F08130910530F09E
:100620008230910549F0039751F00CC00E944703B6
:1006300009C00E94B10306C00E94480403C00E9482
:10064000260300000000DF91CF910895CF93DF9340
:10065000CDB7DEB78091220190912301892B29F437
:10066000109223011092220104C0109223011092D3
:1006700022018091220190912301892B09F003C06E
:100680001092190100000000DF91CF910895CF93DF
:10069000DF93CDB7DEB780911C0190911D018230B0
:1006A0009105E1F08330910528F4009749F0019716
:1006B00071F027C083309105C1F00497E9F021C0A3
:1006C00081E090E090931D0180931C011EC082E0A8
:1006D00090E090931D0180931C0117C083E090E08F
:1006E00090931D0180931C0110C084E090E09093D2
:1006F0001D0180931C0109C010921D0110921C0164
:1007000004C010921D0110921C0180911C01909157
:100710001D0182309105B1F08330910528F40097D6
:1007200049F0019759F019C08330910579F0049789
:1007300089F013C088E1809319010FC08CE3809386
:1007400019010BC08EE78093190107C08FEF8093CA
:10075000190103C01092190100000000DF91CF9130
:100760000895CF93DF93CDB7DEB7809120019091AC
:100770002101CC01A0E0B0E040E050E028E030E012
:10078000841B950B2817390708F442C08A5B9F4FDA
:10079000FC010C944A0581E090E090932101809344
:1007A00020013AC082E090E09093210180932001E3
:1007B00033C083E090E090932101809320012CC00E
:1007C00084E090E0909321018093200125C085E092
:1007D00090E090932101809320011EC086E090E07C
:1007E000909321018093200117C087E090E09093BF
:1007F00021018093200110C088E090E090932101B6
:100800008093200109C0109221011092200104C0A0
:1008100010922101109220018091200190912101DC
:10082000CC01A0E0B0E040E050E028E030E0841BE4
:10083000950B2817390740F1815B9F4FFC010C9401
:100840004A0580E8809319011FC081E8809319014F
:100850001BC081EC8093190117C083EC80931901B0
:1008600013C083EE809319010FC087EE80931901A6
:100870000BC087EF8093190107C08FEF8093190198
:1008800003C01092190100000000DF91CF9108957C
:10089000CF93DF93CDB7DEB780911E0190911F01FA
:1008A00082309105F9F08330910528F4009761F0CA
:1008B000019789F031C08430910511F184309105A0
:1008C000C0F0059721F128C081E090E090931F01CE
:1008D00080931E0125C082E090E090931F018093D9
:1008E0001E011EC083E090E090931F0180931E01C3
:1008F00017C084E090E090931F0180931E0110C008
:1009000085E090E090931F0180931E0109C0109232
:100910001F0110921E0104C010921F0110921E01AF
:1009200080911E0190911F0182309105C1F08330AA
:10093000910528F4009761F0019771F01EC0843092
:100940009105A1F08430910570F0059799F015C0DC
:1009500089E98093190111C0109219010EC086E631
:10096000809319010AC01092190107C08AE580938B
:10097000190103C01092190100000000DF91CF910E
:100980000895CF93DF9300D01F92CDB7DEB78B834E
:100990001A82198227C088E290E028E0FC012083B7
:1009A00088E290E028E230E0F9012081422F2B819B
:1009B000222F30E0098002C0359527950A94E2F78E
:1009C0002170242BFC01208388E290E028E230E0B3
:1009D000F90120812260FC01208389819A8101969E
:1009E0009A83898389819A810897ACF288E290E0A2
:1009F00028E230E0F90120812460FC01208388E2B4
:100A000090E0FC01108200000F900F900F90DF919A
:100A1000CF910895CF93DF93CDB7DEB787E290E013
:100A20002FEFFC01208388E290E0FC0110828AE233
:100A300090E0FC0110828BE290E02FEFFC0120831C
:100A400010921B0110921A011092230110922201A0
:100A500010921D0110921C01109221011092200190
:100A600010921F0110921E0168EC70E080E090E08F
:100A70000E94A2000E94D0000E9480018091190172
:100A80000E94C1040000809114018823E1F31092B8
:100A90001401F2CFEE0FFF1F0024001C0BBE0790C5
:0A0AA000F691E02D0994F894FFCFC1
:100AAA0000000002000000007900000000000100C0
:040ABA000000010037
:00000001FF
