:100000000C9446000C9465000C9465000C946500FB
:100010000C9465000C9465000C9465000C946500CC
:100020000C9465000C9465000C9465000C946500BC
:100030000C9465000C940C010C9465000C94650004
:100040000C9465000C9465000C9465000C945503A9
:100050000C9465000C9465000C9465000C9465008C
:100060000C9465000C9465000C9465000C9465007C
:100070000C9465000C9465000C9465000C9465006C
:100080000C9465000C9465000C94650011241FBE4F
:10009000CFEFD0E4DEBFCDBF11E0A0E0B1E0E6E0FD
:1000A000FAE000E00BBF02C007900D92A231B10749
:1000B000D9F721E0A2E1B1E001C01D92A332B2075D
:1000C000E1F70E949F030C9401050C940000CF936C
:1000D000DF9300D01F92CDB7DEB789837B836A831D
:1000E00089818A3031F48A819B81BC018DE00E9434
:1000F000670080EC90E0FC018081882F90E08072A6
:100100009927892BB1F386EC90E02981FC012083AB
:1001100080E090E00F900F900F90DF91CF910895C5
:10012000CF93DF9300D000D0CDB7DEB769837A8359
:100130008B839C8389819A81AB81BC8180930E01E2
:1001400090930F01A0931001B093110180910E01C3
:1001500090910F01A0911001B091110180931301B2
:1001600090931401A0931501B093160100000F9015
:100170000F900F900F90DF91CF910895CF93DF9361
:10018000CDB7DEB781E890E02BE0FC01208388E862
:1001900090E02DE730E0FC01318320838FE690E092
:1001A00022E0FC01208384E890E0FC0111821082AF
:1001B00080910E0190910F01A0911001B091110159
:1001C0008093130190931401A0931501B09316012D
:1001D0008FE590E02FE530E0F90120812068FC01F7
:1001E00020830000DF91CF910895CF93DF93CDB7A7
:1001F000DEB781E890E0FC0110820000DF91CF9132
:100200000895CF93DF93CDB7DEB781E080931201DD
:100210000000DF91CF9108951F920F9200905F0030
:100220000F92112400905B000F922F933F934F93F6
:100230005F936F937F938F939F93AF93BF93EF934E
:10024000FF93CF93DF93CDB7DEB7809113019091E9
:100250001401A0911501B09116010197A109B109EE
:100260008093130190931401A0931501B09316018C
:100270008091130190911401A0911501B091160184
:10028000892B8A2B8B2B91F40E94010180910E0106
:1002900090910F01A0911001B09111018093130171
:1002A00090931401A0931501B09316010000DF9103
:1002B000CF91FF91EF91BF91AF919F918F917F91DE
:1002C0006F915F914F913F912F910F9000925B0042
:1002D0000F9000925F000F901F901895CF93DF93BF
:1002E00000D01F92CDB7DEB789836A834B838B81A1
:1002F000882371F08A81282F30E081E090E002C0ED
:10030000880F991F2A95E2F7982F8981892B0EC0B3
:100310008A81282F30E081E090E002C0880F991F89
:100320002A95E2F7982F9095898189230F900F9055
:100330000F90DF91CF910895CF93DF9300D0CDB789
:10034000DEB789836A838A81282F30E081E090E0DC
:1003500002C0880F991F2A95E2F7982F8981892377
:100360000F900F90DF91CF9108950F931F93CF932C
:10037000DF93CDB7DEB70BE210E040E064E08FEF33
:100380000E946E01F8018083000089E290E0FC0188
:100390008081809560E00E949C01882311F081E3B8
:1003A000D3C089E290E0FC018081809561E00E94E9
:1003B0009C01882311F084E3C7C089E290E0FC012E
:1003C0008081809562E00E949C01882311F087E380
:1003D000BBC089E290E0FC018081809563E00E94CF
:1003E0009C01882311F08AE2AFC00BE210E040E0EC
:1003F00065E08FEF0E946E01F8018083000089E2C2
:1004000090E0FC018081809560E00E949C0188233F
:1004100011F082E399C089E290E0FC01808180952F
:1004200061E00E949C01882311F085E38DC089E280
:1004300090E0FC018081809562E00E949C0188230D
:1004400011F088E381C089E290E0FC018081809511
:1004500063E00E949C01882311F080E375C00BE2E9
:1004600010E040E066E08FEF0E946E01F8018083AB
:10047000000089E290E0FC018081809560E00E94AC
:100480009C01882311F083E35FC089E290E0FC01C6
:100490008081809561E00E949C01882311F086E3B1
:1004A00053C089E290E0FC018081809562E00E9467
:1004B0009C01882311F089E347C089E290E0FC01A8
:1004C0008081809563E00E949C01882311F083E283
:1004D0003BC00BE210E040E067E08FEF0E946E014E
:1004E000F8018083000089E290E0FC018081809522
:1004F00060E00E949C01882311F081E425C089E21C
:1005000090E0FC018081809561E00E949C0188233D
:1005100011F082E419C089E290E0FC0180818095AD
:1005200062E00E949C01882311F083E40DC089E2FF
:1005300090E0FC018081809563E00E949C0188230B
:1005400011F084E401C080E0DF91CF911F910F9101
:100550000895CF93DF93CDB7DEB72C970FB6F894FD
:10056000DEBF0FBECDBF6D837E838F8398872987C3
:100570003A874B875C878D819E81AF81B8852985BD
:100580003A854B855C85BC01CD010E94DF04DC010E
:10059000CB0189839A83AB83BC8389819A81AB81A8
:1005A000BC81892B8A2B8B2B29F489859A85AB8575
:1005B000BC8511C089859A85AB85BC858D839E835A
:1005C000AF83B88789819A81AB81BC8189879A87FB
:1005D000AB87BC87D0CFBC01CD012C960FB6F89469
:1005E000DEBF0FBECDBFDF91CF910895CF93DF93D4
:1005F000CDB7DEB784E290E020EBFC0120838CE4F1
:1006000090E02CE430E0F90120812165FC01208399
:100610008FE590E02FE530E0F90120812068FC01B2
:1006200020830000DF91CF910895CF93DF93CDB762
:10063000DEB784E290E020E4FC0120838CE490E0CB
:100640002CE430E0F9012081206CFC0120838FE54F
:1006500090E02FE530E0F90120812068FC01208343
:100660000000DF91CF910895CF93DF931F92CDB714
:10067000DEB789838EE490E02981FC01208385E246
:1006800090E020EAFC01208300008DE490E0FC0172
:1006900080818823D4F785E290E020EBFC01208361
:1006A00000000F90DF91CF9108951F920F9200905C
:1006B0005F000F92112400905B000F928F939F9325
:1006C000EF93FF93CF93DF93CDB7DEB78EE490E047
:1006D000FC018081809317010000DF91CF91FF9191
:1006E000EF919F918F910F9000925B000F9000927D
:1006F0005F000F901F901895CF93DF9300D0CDB778
:10070000DEB79A83898389819A81892B19F41A82A9
:10071000198203C01A821982000089819A81892B6B
:1007200039F488E290E020911701FC012083000059
:1007300089819A810F900F90DF91CF9108950F9347
:100740001F93CF93DF93CDB7DEB72C970FB6F894F6
:10075000DEBF0FBECDBF84E290E0FC01108285E2D7
:1007600090E02FEFFC01208387E290E02FEFFC0167
:10077000208388E290E0FC01108288E191E09C8770
:100780008B8781E090E09A8789871092180180E238
:1007900090E0A0E0B0E08093190190931A01A0933B
:1007A0001B01B0931C018091190190911A01A09135
:1007B0001B01B0911C0180931D0190931E01A09319
:1007C0001F01B09320018CE793E090932201809366
:1007D00021018B859C85FC0181819281A381B4815B
:1007E00089839A83AB83BC8381E090E09E838D8371
:1007F00025C08D819E81880F991F9E012F5F3F4FDD
:10080000820F931F0A96FC0180819181FC01218156
:1008100032814381548189819A81AB81BC81BC0141
:10082000CD010E94A902DC01CB0189839A83AB83AD
:10083000BC838D819E8101969E838D832D813E8117
:1008400089859A8528173907A0F289819A81AB8119
:10085000BC81BC01CD010E9490000E94BE000E949C
:10086000150318861F829BC08F819885880F991F5A
:100870009E012F5F3F4F820F931F0A96FC018081DC
:100880009181FC0125813681478150858F81988532
:10089000880F991FBE016F5F7F4F860F971F0A96C3
:1008A000FC0180819181FC0181819281A381B481CD
:1008B000281739074A075B0709F045C08F819885DB
:1008C000880F991F9E012F5F3F4F820F931F0A963B
:1008D000FC01008111818F819885880F991F9E01ED
:1008E0002F5F3F4F820F931F0A96FC0180819181F9
:1008F000FC01218532858F819885880F991FAE0173
:100900004F5F5F4F840F951F0A96FC018081918194
:10091000FC018081082E000C990BF9010995F80162
:1009200080838F819885880F991F9E012F5F3F4F8D
:10093000820F931F0A96FC0180819181FC01158230
:100940001682178210868F819885880F991F9E01C5
:100950002F5F3F4F820F931F0A96FC012081318148
:100960008F819885880F991FAE014F5F5F4F840F6D
:10097000951F0A96FC0180819181FC0185819681F9
:10098000A781B0850196A11DB11DF90185839683CC
:10099000A783B0878F819885019698878F832F8151
:1009A000388589859A852817390708F45DCF0000B6
:1009B000809112018823E1F31092120152CFA1E23B
:1009C0001A2EAA1BBB1BFD010DC0AA1FBB1FEE1FC9
:1009D000FF1FA217B307E407F50720F0A21BB30B14
:1009E000E40BF50B661F771F881F991F1A9469F790
:1009F00060957095809590959B01AC01BD01CF01EC
:060A00000895F894FFCFF9
:100A06000000000200000000670000000000010076
:020A16000000DE
:00000001FF
