:100000000C9446000C9465000C9465000C946500FB
:100010000C9465000C9465000C9465000C946500CC
:100020000C9465000C9465000C9465000C946500BC
:100030000C9465000C940C010C9465000C94650004
:100040000C9465000C9465000C9465000C945503A9
:100050000C9465000C9465000C9465000C9465008C
:100060000C9465000C9465000C9465000C9465007C
:100070000C9465000C9465000C9465000C9465006C
:100080000C9465000C9465000C94650011241FBE4F
:10009000CFEFD0E4DEBFCDBF11E0A0E0B1E0ECEBEC
:1000A000FEE000E00BBF02C007900D92A032B10746
:1000B000D9F721E0A0E2B1E001C01D92AF35B2074F
:1000C000E1F70E9460050C945C070C940000CF934C
:1000D000DF9300D01F92CDB7DEB789837B836A831D
:1000E00089818A3031F48A819B81BC018DE00E9434
:1000F000670080EC90E0FC018081882F90E08072A6
:100100009927892BB1F386EC90E02981FC012083AB
:1001100080E090E00F900F900F90DF91CF910895C5
:10012000CF93DF9300D000D0CDB7DEB769837A8359
:100130008B839C8389819A81AB81BC8180930E01E2
:1001400090930F01A0931001B093110180910E01C3
:1001500090910F01A0911001B091110180932101A4
:1001600090932201A0932301B093240100000F90EB
:100170000F900F900F90DF91CF910895CF93DF9361
:10018000CDB7DEB781E890E02BE0FC01208388E862
:1001900090E02DE730E0FC01318320838FE690E092
:1001A00022E0FC01208384E890E0FC0111821082AF
:1001B00080910E0190910F01A0911001B091110159
:1001C0008093210190932201A0932301B0932401F5
:1001D0008FE590E02FE530E0F90120812068FC01F7
:1001E00020830000DF91CF910895CF93DF93CDB7A7
:1001F000DEB781E890E0FC0110820000DF91CF9132
:100200000895CF93DF93CDB7DEB781E080932001CF
:100210000000DF91CF9108951F920F9200905F0030
:100220000F92112400905B000F922F933F934F93F6
:100230005F936F937F938F939F93AF93BF93EF934E
:10024000FF93CF93DF93CDB7DEB7809121019091DB
:100250002201A0912301B09124010197A109B109C4
:100260008093210190932201A0932301B093240154
:100270008091210190912201A0912301B09124014C
:10028000892B8A2B8B2B91F40E94010180910E0106
:1002900090910F01A0911001B09111018093210163
:1002A00090932201A0932301B09324010000DF91D9
:1002B000CF91FF91EF91BF91AF919F918F917F91DE
:1002C0006F915F914F913F912F910F9000925B0042
:1002D0000F9000925F000F901F901895CF93DF93BF
:1002E00000D01F92CDB7DEB789836A834B838B81A1
:1002F000882371F08A81282F30E081E090E002C0ED
:10030000880F991F2A95E2F7982F8981892B0EC0B3
:100310008A81282F30E081E090E002C0880F991F89
:100320002A95E2F7982F9095898189230F900F9055
:100330000F90DF91CF910895CF93DF9300D0CDB789
:10034000DEB789836A838A81282F30E081E090E0DC
:1003500002C0880F991F2A95E2F7982F8981892377
:100360000F900F90DF91CF9108950F931F93CF932C
:10037000DF93CDB7DEB70BE210E040E064E08FEF33
:100380000E946E01F8018083000089E290E0FC0188
:100390008081809560E00E949C01882311F081E3B8
:1003A000D3C089E290E0FC018081809561E00E94E9
:1003B0009C01882311F084E3C7C089E290E0FC012E
:1003C0008081809562E00E949C01882311F087E380
:1003D000BBC089E290E0FC018081809563E00E94CF
:1003E0009C01882311F08AE2AFC00BE210E040E0EC
:1003F00065E08FEF0E946E01F8018083000089E2C2
:1004000090E0FC018081809560E00E949C0188233F
:1004100011F082E399C089E290E0FC01808180952F
:1004200061E00E949C01882311F085E38DC089E280
:1004300090E0FC018081809562E00E949C0188230D
:1004400011F088E381C089E290E0FC018081809511
:1004500063E00E949C01882311F080E375C00BE2E9
:1004600010E040E066E08FEF0E946E01F8018083AB
:10047000000089E290E0FC018081809560E00E94AC
:100480009C01882311F083E35FC089E290E0FC01C6
:100490008081809561E00E949C01882311F086E3B1
:1004A00053C089E290E0FC018081809562E00E9467
:1004B0009C01882311F089E347C089E290E0FC01A8
:1004C0008081809563E00E949C01882311F083E283
:1004D0003BC00BE210E040E067E08FEF0E946E014E
:1004E000F8018083000089E290E0FC018081809522
:1004F00060E00E949C01882311F081E425C089E21C
:1005000090E0FC018081809561E00E949C0188233D
:1005100011F082E419C089E290E0FC0180818095AD
:1005200062E00E949C01882311F083E40DC089E2FF
:1005300090E0FC018081809563E00E949C0188230B
:1005400011F084E401C080E0DF91CF911F910F9101
:100550000895CF93DF93CDB7DEB72C970FB6F894FD
:10056000DEBF0FBECDBF6D837E838F8398872987C3
:100570003A874B875C878D819E81AF81B8852985BD
:100580003A854B855C85BC01CD010E943A07DC01B0
:10059000CB0189839A83AB83BC8389819A81AB81A8
:1005A000BC81892B8A2B8B2B29F489859A85AB8575
:1005B000BC8511C089859A85AB85BC858D839E835A
:1005C000AF83B88789819A81AB81BC8189879A87FB
:1005D000AB87BC87D0CFBC01CD012C960FB6F89469
:1005E000DEBF0FBECDBFDF91CF910895CF93DF93D4
:1005F000CDB7DEB784E290E020EBFC0120838CE4F1
:1006000090E02CE430E0F90120812165FC01208399
:100610008FE590E02FE530E0F90120812068FC01B2
:1006200020830000DF91CF910895CF93DF93CDB762
:10063000DEB784E290E020E4FC0120838CE490E0CB
:100640002CE430E0F9012081206CFC0120838FE54F
:1006500090E02FE530E0F90120812068FC01208343
:100660000000DF91CF910895CF93DF931F92CDB714
:10067000DEB789838EE490E02981FC01208385E246
:1006800090E020EAFC01208300008DE490E0FC0172
:1006900080818823D4F785E290E020EBFC01208361
:1006A00000000F90DF91CF9108951F920F9200905C
:1006B0005F000F92112400905B000F928F939F9325
:1006C000EF93FF93CF93DF93CDB7DEB78EE490E047
:1006D000FC018081809325010000DF91CF91FF9183
:1006E000EF919F918F910F9000925B000F9000927D
:1006F0005F000F901F901895CF93DF9300D0CDB778
:10070000DEB79A83898389819A81009719F00197CE
:1007100031F007C081E090E09A83898305C01A8296
:1007200019821A821982000089819A81009719F032
:10073000019729F008C080EF8093120104C08FE078
:1007400080931201000089819A810F900F90DF91B0
:10075000CF910895CF93DF9300D0CDB7DEB79A83C2
:10076000898389819A81009719F0019731F007C038
:1007700081E090E09A83898305C01A8219821A82E7
:100780001982000089819A81009719F0019729F058
:1007900008C08AEA8093130104C085E580931301A1
:1007A000000089819A810F900F90DF91CF91089579
:1007B000CF93DF9300D0CDB7DEB79A838983898149
:1007C0009A81009719F0019789F020C08091270144
:1007D000882319F41A8219821CC080912701813064
:1007E000C1F481E090E09A83898313C0809127014E
:1007F000813029F481E090E09A8389830CC0809154
:100800002701882341F41A82198205C01A821982AD
:1008100003C0000001C0000089819A81009719F08F
:10082000019799F026C080911401823030F08091B8
:10083000140186958093140119C0809114018130B0
:10084000A9F481E08093270111C0809114018823CD
:1008500034F080911401880F8093140109C08091B5
:100860001401803829F41092270102C0000001C051
:10087000000089819A810F900F90DF91CF910895A8
:10088000CF93DF9300D0CDB7DEB79A838983898178
:100890009A8182309105D9F0833091052CF400972C
:1008A00061F0019779F025C084309105D1F0843052
:1008B000910594F00597D1F01CC081E090E09A83F7
:1008C00089831AC082E090E09A83898315C083E00F
:1008D00090E09A83898310C084E090E09A838983B2
:1008E0000BC085E090E09A83898306C01A82198242
:1008F00003C01A821982000089819A818230910591
:10090000C9F0833091052CF4009761F0019771F0E4
:1009100021C084309105B1F0843091057CF00597B9
:10092000A9F018C081E88093260114C082E4809366
:10093000260110C084E2809326010CC088E18093D8
:10094000260108C084E28093260104C082E48093DB
:100950002601000089819A810F900F90DF91CF913D
:100960000895CF93DF9300D0CDB7DEB79A83898304
:1009700089819A818230910509F440C083309105C4
:100980002CF4009759F0019769F15BC08330910511
:1009900009F440C0049709F449C053C0809125016F
:1009A0008A3029F481E090E09A8389834DC0809158
:1009B00025018B3029F482E090E09A83898344C03A
:1009C000809125018C3029F483E090E09A8389831B
:1009D0003BC0809125018D30B9F584E090E09A8389
:1009E000898332C0809125018A3029F481E090E02A
:1009F0009A8389832AC01A82198227C0809125018F
:100A00008B3029F482E090E09A8389831EC01A8299
:100A100019821BC0809125018C3029F483E090E07D
:100A20009A83898312C01A8219820FC0809125018E
:100A30008D3029F484E090E09A83898302C01A8281
:100A400019821A82198201C0000089819A8182303C
:100A50009105D1F0833091052CF4009749F001976E
:100A600061F027C083309105B1F00497D9F021C01F
:100A700088E290E0FC0110821CC088E290E02091A6
:100A80001201FC01208315C088E290E0209113013F
:100A9000FC0120830EC088E290E020911401FC014B
:100AA000208307C088E290E020912601FC0120838A
:100AB000000089819A810F900F90DF91CF91089566
:100AC0000F931F93CF93DF93CDB7DEB764970FB625
:100AD000F894DEBF0FBECDBF84E290E0FC0110822F
:100AE00085E290E02FEFFC01208387E290E02FEF7A
:100AF000FC01208388E290E0FC0110828AE0E5E1BD
:100B0000F1E0DE011B9601900D928A95E1F785E0F8
:100B100090E09A878987109228018CE291E0A0E00A
:100B2000B0E08093290190932A01A0932B01B09308
:100B30002C018091290190912A01A0912B01B09163
:100B40002C0180932D0190932E01A0932F01B0933F
:100B500030018CE793E09093320180933101109241
:100B600033018CE291E0A0E0B0E0809334019093F7
:100B70003501A0933601B0933701809134019091F3
:100B80003501A0913601B0913701809338019093DF
:100B90003901A0933A01B0933B018AEA93E0909324
:100BA0003D0180933C0110923E018CE291E0A0E077
:100BB000B0E080933F0190934001A0934101B09336
:100BC000420180913F0190914001A0914101B0917B
:100BD00042018093430190934401A0934501B09357
:100BE000460188ED93E0909348018093470110926D
:100BF000490184EF91E0A0E0B0E080934A01909336
:100C00004B01A0934C01B0934D0180914A0190910A
:100C10004B01A0914C01B0914D0180934E019093F6
:100C20004F01A0935001B093510180E494E0909360
:100C3000530180935201109254018CE291E0A0E0A4
:100C4000B0E08093550190935601A0935701B09363
:100C500058018091550190915601A0915701B09192
:100C600058018093590190935A01A0935B01B0936E
:100C70005C0181EB94E090935E0180935D018B8534
:100C80009C85FC0181819281A381B48189839A83AF
:100C9000AB83BC8381E090E09E838D8325C08D81F2
:100CA0009E81880F991F9E012F5F3F4F820F931FD8
:100CB0000A96FC0180819181FC012181328143816E
:100CC000548189819A81AB81BC81BC01CD010E9494
:100CD000A902DC01CB0189839A83AB83BC838D811C
:100CE0009E8101969E838D832D813E8189859A8583
:100CF00028173907A0F289819A81AB81BC81BC0198
:100D0000CD010E9490000E94BE000E94150318862B
:100D10001F82A0C08F819885880F991F9E012F5F29
:100D20003F4F820F931F0A96FC0180819181FC0145
:100D300025813681478150858F819885880F991F3D
:100D4000BE016F5F7F4F860F971F0A96FC0180815F
:100D50009181FC0181819281A381B4812817390797
:100D60004A075B0709F045C08F819885880F991F56
:100D70009E012F5F3F4F820F931F0A96FC01008157
:100D800011818F819885880F991F9E012F5F3F4F9A
:100D9000820F931F0A96FC0180819181FC012185BD
:100DA00032858F819885880F991FAE014F5F5F4F05
:100DB000840F951F0A96FC0180819181FC0180813E
:100DC000082E000C990BF9010995F80180838F8199
:100DD0009885880F991F9E012F5F3F4F820F931FA9
:100DE0000A96FC0180819181FC011582168217828E
:100DF00010868F819885880F991F9E012F5F3F4F26
:100E0000820F931F0A96FC01608171818F81988502
:100E1000880F991F9E012F5F3F4F820F931F0A96E5
:100E2000FC0180819181FC012581368147815085BB
:100E300089819A81AB81BC81820F931FA41FB51F4A
:100E4000FB0185839683A783B0878F819885019660
:100E500098878F832F81388589859A852817390748
:100E600008F458CF0000809120018823E1F310920C
:100E700020014DCFA1E21A2EAA1BBB1BFD010DC004
:100E8000AA1FBB1FEE1FFF1FA217B307E407F5073A
:100E900020F0A21BB30BE40BF50B661F771F881F16
:100EA000991F1A9469F760957095809590959B01AC
:0C0EB000AC01BD01CF010895F894FFCF04
:100EBC0000000002000000006700000000000100BC
:100ECC000000F0AA80280133013E014901540100C1
:00000001FF
