:100000000C9458000C9477000C9477000C947700B3
:100010000C9477000C9477000C9477000C94770084
:100020000C9477000C9477000C9477000C94770074
:100030000C9477000C941E010C9477000C947700BC
:100040000C9477000C9477000C9477000C94770054
:100050000C9477000C9477000C9477000C94770044
:100060000C9477000C9477000C9477000C94770034
:100070000C9477000C9477000C9477000C94770024
:100080000C9477000C9477000C9477009A01A101EE
:10009000B301C501D701E901FB010C021D02690290
:1000A000570269025B0269025F0269026302690228
:1000B00011241FBECFEFD0E4DEBFCDBF11E0A0E022
:1000C000B1E0E6E5F5E000E00BBF02C007900D925D
:1000D000A231B107D9F721E0A2E1B1E001C01D9240
:1000E000AA31B207E1F70E9474020C94A9020C94A1
:1000F0000000CF93DF9300D01F92CDB7DEB7898386
:100100007B836A8389818A3031F48A819B81BC0137
:100110008DE00E94790080EC90E0FC018081882FC6
:1001200090E080729927892BB1F386EC90E02981C9
:10013000FC01208380E090E00F900F900F90DF9102
:10014000CF910895CF93DF9300D000D0CDB7DEB725
:1001500069837A838B839C8389819A81AB81BC81FB
:1001600080930E0190930F01A0931001B0931101A1
:1001700080910E0190910F01A0911001B091110199
:100180008093130190931401A0931501B09316016D
:1001900000000F900F900F900F90DF91CF91089576
:1001A000CF93DF93CDB7DEB781E890E02BE0FC0181
:1001B000208388E890E02DE730E0FC013183208344
:1001C0008FE690E022E0FC01208384E890E0FC01CF
:1001D0001182108280910E0190910F01A091100167
:1001E000B09111018093130190931401A093150114
:1001F000B09316018FE590E02FE530E0F901208102
:100200002068FC0120830000DF91CF910895CF93F7
:10021000DF93CDB7DEB781E890E0FC0110820000EB
:10022000DF91CF910895CF93DF93CDB7DEB781E013
:10023000809312010000DF91CF9108951F920F92D9
:1002400000905F000F92112400905B000F922F939B
:100250003F934F935F936F937F938F939F93AF934E
:10026000BF93EF93FF93CF93DF93CDB7DEB780912A
:10027000130190911401A0911501B09116010197FD
:10028000A109B1098093130190931401A093150162
:10029000B09316018091130190911401A091150162
:1002A000B0911601892B8A2B8B2B91F40E9413019C
:1002B00080910E0190910F01A0911001B091110158
:1002C0008093130190931401A0931501B09316012C
:1002D0000000DF91CF91FF91EF91BF91AF919F917E
:1002E0008F917F916F915F914F913F912F910F90DF
:1002F00000925B000F9000925F000F901F90189586
:10030000CF93DF93CDB7DEB780911801909119019B
:10031000CC01A0E0B0E040E050E028E030E0841BF9
:10032000950B2817390708F499C08A5B9F4FFC0189
:100330000C94A00281E090E0909319018093180141
:10034000A1C080E290E0FC018081882F90E0817064
:100350009927892B09F087C082E090E090931901DA
:100360008093180180C080E290E0FC018081882F9A
:1003700090E081709927892B09F477C083E090E0A1
:10038000909319018093180170C080E290E0FC0105
:100390008081882F90E081709927892B09F067C0B0
:1003A00084E090E0909319018093180160C080E28E
:1003B00090E0FC018081882F90E081709927892B43
:1003C00009F457C085E090E09093190180931801DB
:1003D00050C080E290E0FC018081882F90E0817025
:1003E0009927892B09F047C086E090E09093190186
:1003F0008093180140C080E290E0FC018081882F4A
:1004000090E081709927892BC1F187E090E090936B
:1004100019018093180131C080E290E0FC018081D5
:10042000882F90E081709927892B49F588E090E02A
:10043000909319018093180122C080E290E0FC01A2
:100440008081882F90E081709927892BD1F081E0FD
:1004500090E0909319018093180113C01092190134
:10046000109218010FC000000DC000000BC000006A
:1004700009C0000007C0000005C0000003C0000064
:1004800001C000008091180190911901CC01A0E0F9
:10049000B0E040E050E028E030E0841B950B2817E6
:1004A0003907A8F0815B9F4FFC010C94A00287E004
:1004B000809317010FC088E3809317010BC089E177
:1004C0008093170107C085E28093170103C00000E5
:1004D00001C0000085E290E020911701FC0120831B
:1004E0000000DF91CF910895CF93DF93CDB7DEB7B2
:1004F00081E290E0FC01108282E290E02FEFFC01AB
:10050000208384E290E02FEFFC01208385E290E0DD
:10051000FC011082109219011092180164EF71E031
:1005200080E090E00E94A2000E94D0000E94800122
:100530000000809112018823E1F310921201F6CF9E
:10054000EE0FFF1F0024001C0BBE0790F691E02D5C
:060550000994F894FFCFAE
:100556000000000200000000790000000000010019
:02056600000093
:00000001FF
