:100000000C948B000C94AA000C94AA000C94AA00E7
:100010000C94AA000C94AA000C94AA000C94AA00B8
:100020000C94AA000C94AA000C94AA000C94AA00A8
:100030000C94AA000C9451010C94AA000C94AA00F0
:100040000C94AA000C94AA000C94AA000C94AA0088
:100050000C94AA000C94AA000C94AA000C94AA0078
:100060000C94AA000C94AA000C94AA000C94AA0068
:100070000C94AA000C94AA000C94AA000C94AA0058
:100080000C94AA000C94AA000C94AA0057049A0499
:100090009A049A049A049A049A049A049A049A0470
:1000A0009A049A049A049A049A049A049A049A0460
:1000B0009A049A049A049A049A049A049A049A0450
:1000C0009A049A049A049A049A049A049A049A0440
:1000D0009A0496049A049A049A049A049A049A0434
:1000E0008F049A049A049A049A049A0493045B0471
:1000F0005F04630467046B046F04730477047B0478
:100100009A049A049A049A049A049A049A047F041A
:10011000830487048B0411241FBECFEFD0E4DEBF1D
:10012000CDBF11E0A0E0B1E0ECE7FDE000E00BBFE7
:1001300002C007900D92AC31B107D9F721E0ACE1D4
:10014000B1E001C01D92A436B207E1F70E94AD04F0
:100150000C94BC060C940000CF93DF9300D01F9248
:10016000CDB7DEB789837B836A8389818A3031F496
:100170008A819B81BC018DE00E94AC0080EC90E004
:10018000FC018081882F90E080729927892BB1F340
:1001900086EC90E02981FC01208380E090E00F90C4
:1001A0000F900F90DF91CF910895CF93DF9300D000
:1001B00000D0CDB7DEB769837A838B839C83898136
:1001C0009A81AB81BC8180930E0190930F01A09323
:1001D0001001B093110180910E0190910F01A09137
:1001E0001001B091110180931D0190931E01A09305
:1001F0001F01B093200100000F900F900F900F90FF
:10020000DF91CF910895CF93DF93CDB7DEB781E82B
:1002100090E02BE0FC01208388E890E02DE730E0BF
:10022000FC01318320838FE690E022E0FC012083F3
:1002300084E890E0FC011182108280910E0190917F
:100240000F01A0911001B091110180931D019093B5
:100250001E01A0931F01B09320018FE590E02FE5D0
:1002600030E0F90120812068FC0120830000DF914B
:10027000CF910895CF93DF93CDB7DEB781E890E0BB
:10028000FC0110820000DF91CF910895CF93DF939E
:10029000CDB7DEB781E080931C010000DF91CF91E4
:1002A00008951F920F9200905F000F92112400900A
:1002B0005B000F922F933F934F935F936F937F93C6
:1002C0008F939F93AF93BF93EF93FF93CF93DF935E
:1002D000CDB7DEB780911D0190911E01A0911F0145
:1002E000B09120010197A109B10980931D0190935C
:1002F0001E01A0931F01B093200180911D019091D8
:100300001E01A0911F01B0912001892B8A2B8B2BFC
:1003100091F40E94460180910E0190910F01A091ED
:100320001001B091110180931D0190931E01A093C3
:100330001F01B09320010000DF91CF91FF91EF9159
:10034000BF91AF919F918F917F916F915F914F91ED
:100350003F912F910F9000925B000F9000925F00F1
:100360000F901F901895CF93DF93CDB7DEB72C97E2
:100370000FB6F894DEBF0FBECDBF6D837E838F8333
:10038000988729873A874B875C878D819E81AF81CB
:10039000B88529853A854B855C85BC01CD010E94D5
:1003A0009106DC01CB0189839A83AB83BC8389816D
:1003B0009A81AB81BC81892B8A2B8B2B29F489856F
:1003C0009A85AB85BC8511C089859A85AB85BC852E
:1003D0008D839E83AF83B88789819A81AB81BC81ED
:1003E00089879A87AB87BC87D0CFBC01CD012C967B
:1003F0000FB6F894DEBF0FBECDBFDF91CF91089549
:10040000CF93DF9300D01F92CDB7DEB789836A8385
:100410004B838B81882371F08A81282F30E081E023
:1004200090E002C0880F991F2A95E2F7982F8981E2
:10043000892B0EC08A81282F30E081E090E002C035
:10044000880F991F2A95E2F7982F90958981892323
:100450000F900F900F90DF91CF910895CF93DF937E
:1004600000D0CDB7DEB789836A838A81282F30E038
:1004700081E090E002C0880F991F2A95E2F7982F3B
:10048000898189230F900F90DF91CF9108950F9369
:100490001F93CF93DF93CDB7DEB708E210E040E0C3
:1004A00064E08FEF0E940002F8018083000086E282
:1004B00090E0FC018081809560E00E942E028823FC
:1004C00011F081E3D3C086E290E0FC018081809549
:1004D00061E00E942E02882311F084E3C7C086E207
:1004E00090E0FC018081809562E00E942E028823CA
:1004F00011F087E3BBC086E290E0FC01808180952B
:1005000063E00E942E02882311F08AE2AFC008E265
:1005100010E040E065E08FEF0E940002F801808368
:10052000000086E290E0FC018081809560E00E94FE
:100530002E02882311F082E399C086E290E0FC014C
:100540008081809561E00E942E02882311F085E36E
:100550008DC086E290E0FC018081809562E00E947F
:100560002E02882311F088E381C086E290E0FC012E
:100570008081809563E00E942E02882311F080E341
:1005800075C008E210E040E066E08FEF0E940002D4
:10059000F8018083000086E290E0FC018081809574
:1005A00060E00E942E02882311F083E35FC086E2A0
:1005B00090E0FC018081809561E00E942E028823FA
:1005C00011F086E353C086E290E0FC0180818095C3
:1005D00062E00E942E02882311F089E347C086E280
:1005E00090E0FC018081809563E00E942E028823C8
:1005F00011F083E23BC008E210E040E067E08FEFDB
:100600000E940002F8018083000086E290E0FC0175
:100610008081809560E00E942E02882311F081E4A1
:1006200025C086E290E0FC018081809561E00E9417
:100630002E02882311F082E419C086E290E0FC01CA
:100640008081809562E00E942E02882311F083E46D
:100650000DC086E290E0FC018081809563E00E94FD
:100660002E02882311F084E401C080E0DF91CF9155
:100670001F910F910895CF93DF9300D0CDB7DEB7D0
:100680009A83898389819A81009719F0019761F093
:1006900016C09091240181E0992309F080E0882F11
:1006A00090E09A8389830DC09091240181E0992381
:1006B00009F080E0882F90E09A83898302C01A8233
:1006C000198289819A81009759F0019751F490918C
:1006D000210181E0992309F080E08093210101C08C
:1006E000000089819A810F900F90DF91CF9108953A
:1006F000CF93DF9300D0CDB7DEB79A83898389810A
:100700009A81009719F0019761F016C09091240129
:1007100081E0992309F080E0882F90E09A83898313
:100720000DC09091240181E0992309F080E0882F89
:1007300090E09A83898302C01A82198289819A8102
:10074000009759F0019751F49091210181E099238C
:1007500009F080E08093210101C0000089819A8125
:100760000F900F90DF91CF910895CF93DF9300D03A
:100770001F92CDB7DEB79B838A8380E290E0FC01B5
:100780008081882F90E08170992721E0892B09F0E2
:1007900020E029838A819B818130910579F0823024
:1007A000910589F0892BC9F481E09981913009F094
:1007B00080E0882F90E09B838A8312C082E090E0E3
:1007C0009B838A830DC081E09981992309F480E09D
:1007D000882F90E09B838A8303C01B821A820000CB
:1007E0008A819B81019749F49091240181E09923AA
:1007F00009F080E08093240101C000008A819B8180
:100800000F900F900F90DF91CF910895CF93DF93CA
:1008100000D0CDB7DEB79A83898389819A81892BED
:1008200019F41A82198203C01A8219820000898180
:100830009A81892B79F4809123018F3131F085E2FF
:1008400090E020E8FC01208304C085E290E0FC01F8
:100850001082000089819A810F900F90DF91CF91D3
:100860000895CF93DF9300D01F92CDB7DEB79B835F
:100870008A838A819B81892B09F063C00E94470289
:1008800089838981882F90E0092E000CAA0BBB0B6D
:1008900040E050E024E430E0841B950B2817390732
:1008A00008F448C08A5B9F4FFC010C94B3068FE1AB
:1008B0008093230143C081E0809323013FC082E005
:1008C000809323013BC083E08093230137C084E001
:1008D0008093230133C085E0809323012FC086E0FD
:1008E000809323012BC087E08093230127C088E0F9
:1008F0008093230123C089E0809323011FC08AE0F5
:10090000809323011BC08BE08093230117C08CE0F0
:100910008093230113C08DE0809323010FC08EE0EC
:10092000809323010BC01092230108C08FE08093B5
:10093000230104C08BE18093230100001B821A82F3
:1009400003C01B821A82000000008A819B810F90E5
:100950000F900F90DF91CF9108950F931F93CF9336
:10096000DF93CDB7DEB765970FB6F894DEBF0FBE45
:10097000CDBF81E290E0FC01108282E290E02FEF97
:10098000FC01208384E290E02FEFFC01208385E2CC
:1009900090E0FC01108287E290E020EFFC012083D0
:1009A00088E290E02FE0FC0120838AE0E2E1F1E0C0
:1009B000DE011C9601900D928A95E1F785E090E0AA
:1009C0009A8789878FEF8B878B858093250182E3B8
:1009D00090E0A0E0B0E08093260190932701A093DF
:1009E0002801B09329018091260190912701A091BF
:1009F0002801B091290180932A0190932B01A093A3
:100A00002C01B0932D0185EB93E090932F018093FF
:100A10002E018B858093300184EF91E0A0E0B0E05F
:100A20008093310190933201A0933301B09334014C
:100A30008091310190913201A0913301B091340144
:100A40008093350190933601A0933701B09338011C
:100A50008BE393E090933A01809339018B858093E7
:100A60003B0188EE93E0A0E0B0E080933C019093DE
:100A70003D01A0933E01B0933F0180913C019091D4
:100A80003D01A0913E01B0913F01809340019093C0
:100A90004101A0934201B093430188E793E0909312
:100AA0004501809344018B85809346018AE090E064
:100AB000A0E0B0E08093470190934801A0934901E2
:100AC000B0934A018091470190914801A09149015A
:100AD000B0914A0180934B0190934C01A0934D013A
:100AE000B0934E0186E094E09093500180934F01C3
:100AF0008B858093510184E690E0A0E0B0E0809384
:100B0000520190935301A0935401B09355018091E9
:100B1000520190915301A0915401B09155018093DD
:100B2000560190935701A0935801B093590181E366
:100B300094E090935B0180935A018C859D85FC0124
:100B400081819281A381B48189839A83AB83BC83A1
:100B500081E090E09E838D8325C08D819E81880FEA
:100B6000991F9E012F5F3F4F820F931F0B96FC0131
:100B700080819181FC01218132814381548189816D
:100B80009A81AB81BC81BC01CD010E94B301DC0123
:100B9000CB0189839A83AB83BC838D819E8101962F
:100BA0009E838D832D813E8189859A8528173907FB
:100BB000A0F289819A81AB81BC81BC01CD010E94E8
:100BC000D5000E94030118861F829BC08F819885E3
:100BD000880F991F9E012F5F3F4F820F931F0B9627
:100BE000FC0180819181FC012581368147815085FE
:100BF0008F819885880F991FBE016F5F7F4F860F89
:100C0000971F0B96FC0180819181FC01818192816B
:100C1000A381B481281739074A075B0709F045C04B
:100C20008F819885880F991F9E012F5F3F4F820FFC
:100C3000931F0B96FC01008111818F819885880F8D
:100C4000991F9E012F5F3F4F820F931F0B96FC0150
:100C500080819181FC01218532858F819885880F63
:100C6000991FAE014F5F5F4F840F951F0B96FC01DC
:100C700080819181FC018081082E000C990BF90183
:100C80000995F80180838F819885880F991F9E01AF
:100C90002F5F3F4F820F931F0B96FC018081918144
:100CA000FC0115821682178210868F819885880F25
:100CB000991F9E012F5F3F4F820F931F0B96FC01E0
:100CC000208131818F819885880F991FAE014F5FF8
:100CD0005F4F840F951F0B96FC0180819181FC0171
:100CE00085819681A781B0850196A11DB11DF9016D
:100CF00085839683A783B0878F819885019698878F
:100D00008F832F81388589859A852817390708F4BC
:100D10005DCF000080911C018823E1F310921C013B
:100D200052CFA1E21A2EAA1BBB1BFD010DC0AA1FA8
:100D3000BB1FEE1FFF1FA217B307E407F50720F044
:100D4000A21BB30BE40BF50B661F771F881F991FBF
:100D50001A9469F760957095809590959B01AC0108
:100D6000BD01CF010895EE0FFF1F0024001C0BBE34
:0C0D70000790F691E02D0994F894FFCF55
:100D7C000000000200000000AC00000000000100B8
:0C0D8C000000250130013B01460151012F
:00000001FF
