:100000000C9446000C9465000C9465000C946500FB
:100010000C9465000C9465000C9465000C946500CC
:100020000C9465000C9465000C9465000C946500BC
:100030000C9465000C940C010C9465000C94650004
:100040000C9465000C9465000C9465000C9465009C
:100050000C9465000C9465000C9465000C9465008C
:100060000C9465000C9465000C9465000C9465007C
:100070000C9465000C9465000C9465000C9465006C
:100080000C9465000C9465000C94650011241FBE4F
:10009000CFEFD0E4DEBFCDBF11E0A0E0B1E0E8ECEF
:1000A000F3E000E00BBF02C007900D92A631B1074C
:1000B000D9F721E0A6E1B1E001C01D92AF31B2074E
:1000C000E1F70E94B9010C94E2010C940000CF9377
:1000D000DF9300D01F92CDB7DEB789837B836A831D
:1000E00089818A3031F48A819B81BC018DE00E9434
:1000F000670080EC90E0FC018081882F90E08072A6
:100100009927892BB1F386EC90E02981FC012083AB
:1001100080E090E00F900F900F90DF91CF910895C5
:10012000CF93DF9300D000D0CDB7DEB769837A8359
:100130008B839C8389819A81AB81BC8180930E01E2
:1001400090930F01A0931001B093110180910E01C3
:1001500090910F01A0911001B091110180931701AE
:1001600090931801A0931901B0931A0100000F9009
:100170000F900F900F90DF91CF910895CF93DF9361
:10018000CDB7DEB781E890E02BE0FC01208388E862
:1001900090E02DE730E0FC01318320838FE690E092
:1001A00022E0FC01208384E890E0FC0111821082AF
:1001B00080910E0190910F01A0911001B091110159
:1001C0008093170190931801A0931901B0931A011D
:1001D0008FE590E02FE530E0F90120812068FC01F7
:1001E00020830000DF91CF910895CF93DF93CDB7A7
:1001F000DEB781E890E0FC0110820000DF91CF9132
:100200000895CF93DF93CDB7DEB781E080931601D9
:100210000000DF91CF9108951F920F9200905F0030
:100220000F92112400905B000F922F933F934F93F6
:100230005F936F937F938F939F93AF93BF93EF934E
:10024000FF93CF93DF93CDB7DEB7809117019091E5
:100250001801A0911901B0911A010197A109B109E2
:100260008093170190931801A0931901B0931A017C
:100270008091170190911801A0911901B0911A0174
:10028000892B8A2B8B2B91F40E94010180910E0106
:1002900090910F01A0911001B0911101809317016D
:1002A00090931801A0931901B0931A010000DF91F7
:1002B000CF91FF91EF91BF91AF919F918F917F91DE
:1002C0006F915F914F913F912F910F9000925B0042
:1002D0000F9000925F000F901F901895CF93DF93BF
:1002E000CDB7DEB780911C0190911D01009719F0E8
:1002F000019741F00EC081E090E090931D01809342
:100300001C010CC081E090E090931D0180931C01C2
:1003100005C010921D0110921C01000080911C016B
:1003200090911D010097F1F0019709F01EC0809196
:100330001E01882F90E08E5E9E4FFC01808180938D
:100340001B0180911E01823030F480911E018F5F6D
:1003500080931E0109C080911E01823029F4109201
:100360001E0102C0000001C000000000DF91CF911B
:100370000895CF93DF93CDB7DEB784E290E02FEFFF
:10038000FC01208385E290E0FC01108210921D01A7
:1003900010921C0168EE73E080E090E00E949000F3
:1003A0000E94BE000E946E0185E290E020911B0138
:1003B000FC0120830000809116018823E1F3109254
:0803C0001601F0CFF894FFCF05
:1003C80000000002000000006700000000000100BB
:0603D80000000102040018
:00000001FF
