:100000000C9446000C9465000C9465000C946500FB
:100010000C9465000C9465000C9465000C946500CC
:100020000C9465000C9465000C9465000C946500BC
:100030000C9465000C940C010C9465000C94650004
:100040000C9465000C9465000C9465000C9465009C
:100050000C9465000C9465000C9465000C9465008C
:100060000C9465000C9465000C9465000C9465007C
:100070000C9465000C9465000C9465000C9465006C
:100080000C9465000C9465000C94650011241FBE4F
:10009000CFEFD0E4DEBFCDBF11E0A0E0B1E0EEE2F3
:1000A000F7E000E00BBF02C007900D92A431B1074A
:1000B000D9F721E0A4E1B1E001C01D92AD31B20752
:1000C000E1F70E9463030C9495030C940000CF9316
:1000D000DF9300D01F92CDB7DEB789837B836A831D
:1000E00089818A3031F48A819B81BC018DE00E9434
:1000F000670080EC90E0FC018081882F90E08072A6
:100100009927892BB1F386EC90E02981FC012083AB
:1001100080E090E00F900F900F90DF91CF910895C5
:10012000CF93DF9300D000D0CDB7DEB769837A8359
:100130008B839C8389819A81AB81BC8180930E01E2
:1001400090930F01A0931001B093110180910E01C3
:1001500090910F01A0911001B091110180931501B0
:1001600090931601A0931701B093180100000F900F
:100170000F900F900F90DF91CF910895CF93DF9361
:10018000CDB7DEB781E890E02BE0FC01208388E862
:1001900090E02DE730E0FC01318320838FE690E092
:1001A00022E0FC01208384E890E0FC0111821082AF
:1001B00080910E0190910F01A0911001B091110159
:1001C0008093150190931601A0931701B093180125
:1001D0008FE590E02FE530E0F90120812068FC01F7
:1001E00020830000DF91CF910895CF93DF93CDB7A7
:1001F000DEB781E890E0FC0110820000DF91CF9132
:100200000895CF93DF93CDB7DEB781E080931401DB
:100210000000DF91CF9108951F920F9200905F0030
:100220000F92112400905B000F922F933F934F93F6
:100230005F936F937F938F939F93AF93BF93EF934E
:10024000FF93CF93DF93CDB7DEB7809115019091E7
:100250001601A0911701B09118010197A109B109E8
:100260008093150190931601A0931701B093180184
:100270008091150190911601A0911701B09118017C
:10028000892B8A2B8B2B91F40E94010180910E0106
:1002900090910F01A0911001B0911101809315016F
:1002A00090931601A0931701B09318010000DF91FD
:1002B000CF91FF91EF91BF91AF919F918F917F91DE
:1002C0006F915F914F913F912F910F9000925B0042
:1002D0000F9000925F000F901F901895CF93DF93BF
:1002E000CDB7DEB780911B0190911C018230910542
:1002F00009F45FC08330910528F4009779F00197E5
:10030000A1F05DC18430910509F4CFC0843091051E
:1003100008F48DC0059709F430C151C181E090E027
:1003200090931C0180931B0150C180E290E0FC017E
:100330008081882F90E081709927892B39F482E0A1
:1003400090E090931C0180931B013FC180E290E0FC
:10035000FC018081882F90E082709927892B39F4E5
:1003600083E090E090931C0180931B012EC180E2FA
:1003700090E0FC018081882F90E081709927892B83
:1003800089F480E290E0FC018081882F90E0827007
:100390009927892B39F485E090E090931C01809394
:1003A0001B0113C181E090E090931C0180931B011D
:1003B0000CC180E290E0FC018081882F90E0817088
:1003C0009927892B89F480E290E0FC018081882FB5
:1003D00090E082709927892B39F084E090E0909327
:1003E0001C0180931B0122C080E290E0FC0180810F
:1003F000882F90E081709927892B89F480E290E022
:10040000FC018081882F90E082709927892B39F434
:1004100085E090E090931C0180931B0107C081E070
:1004200090E090931C0180931B01CFC0CEC080E26E
:1004300090E0FC018081882F90E081709927892BC2
:1004400089F080E290E0FC018081882F90E082704A
:100450009927892B39F484E090E090931C018093D4
:100460001B0122C080E290E0FC018081882F90E097
:1004700081709927892B89F480E290E0FC018081CA
:10048000882F90E082709927892B39F485E090E0DD
:1004900090931C0180931B0107C081E090E0909332
:1004A0001C0180931B0191C090C0809119018A307A
:1004B00039F482E090E090931C0180931B0184C08A
:1004C00080911A018A3039F483E090E090931C0106
:1004D00080931B0179C080E290E0FC018081882F2D
:1004E00090E081709927892B51F080E290E0FC0127
:1004F0008081882F90E082709927892B39F484E0DD
:1005000090E090931C0180931B0136C080E290E044
:10051000FC018081882F90E081709927892B89F4D4
:1005200080E290E0FC018081882F90E08270992722
:10053000892B39F485E090E090931C0180931B0196
:100540001BC080E290E0FC018081882F90E08170E8
:100550009927892B51F480E290E0FC018081882F5B
:1005600090E082709927892B79F181E090E0909357
:100570001C0180931B0128C027C080E290E0FC0191
:100580008081882F90E081709927892B51F480E237
:1005900090E0FC018081882F90E082709927892B60
:1005A00039F081E090E090931C0180931B010DC015
:1005B00085E090E090931C0180931B0106C010928F
:1005C0001C0110921B0101C0000080911B01909141
:1005D0001C0182309105B9F08330910530F4009709
:1005E00071F0019709F464C06AC08430910549F143
:1005F00084309105B8F0059709F457C060C087E0D2
:10060000809312015CC01092190110921A0180911E
:100610001201893008F04EC0809112018F5F8093E3
:10062000120148C01092190110921A018091120112
:10063000882309F441C080911201815080931201F6
:100640003BC080E290E0FC018081882F90E08170C7
:100650009927892B81F480E290E0FC018081882F2A
:1006600090E082709927892B31F0809119018F5F7A
:100670008093190123C080E290E0FC018081882FE3
:1006800090E081709927892BC9F080E290E0FC010D
:100690008081882F90E082709927892B79F480914E
:1006A0001A018F5F80931A0109C01092120107C0CE
:1006B000000005C0000003C0000001C000000000F1
:1006C000DF91CF910895CF93DF93CDB7DEB781E26D
:1006D00090E0FC01108282E290E02FEFFC01208389
:1006E00084E290E02FEFFC01208385E290E0FC01A2
:1006F000108210921C0110921B0164E670E080E0F1
:1007000090E00E9490000E94BE000E946E0185E26F
:1007100090E020911201FC012083000080911401DF
:0E0720008823E1F310921401F0CFF894FFCF7C
:10072E000000000200000000670000000000010051
:04073E0000000700B0
:00000001FF
