:100000000C9446000C9465000C9465000C946500FB
:100010000C9465000C9465000C9465000C946500CC
:100020000C9465000C9465000C9465000C946500BC
:100030000C9465000C940C010C9465000C94650004
:100040000C9465000C9465000C9465000C9465009C
:100050000C9465000C9465000C9465000C9465008C
:100060000C9465000C9465000C9465000C9465007C
:100070000C9465000C9465000C9465000C9465006C
:100080000C9465000C9465000C94650011241FBE4F
:10009000CFEFD0E4DEBFCDBF11E0A0E0B1E0ECE6F1
:1000A000F5E000E00BBF02C007900D92A631B1074A
:1000B000D9F721E0A6E1B1E001C01D92AF31B2074E
:1000C000E1F70E9482020C94B4020C940000CF93DA
:1000D000DF9300D01F92CDB7DEB789837B836A831D
:1000E00089818A3031F48A819B81BC018DE00E9434
:1000F000670080EC90E0FC018081882F90E08072A6
:100100009927892BB1F386EC90E02981FC012083AB
:1001100080E090E00F900F900F90DF91CF910895C5
:10012000CF93DF9300D000D0CDB7DEB769837A8359
:100130008B839C8389819A81AB81BC8180930E01E2
:1001400090930F01A0931001B093110180910E01C3
:1001500090910F01A0911001B091110180931701AE
:1001600090931801A0931901B0931A0100000F9009
:100170000F900F900F90DF91CF910895CF93DF9361
:10018000CDB7DEB781E890E02BE0FC01208388E862
:1001900090E02DE730E0FC01318320838FE690E092
:1001A00022E0FC01208384E890E0FC0111821082AF
:1001B00080910E0190910F01A0911001B091110159
:1001C0008093170190931801A0931901B0931A011D
:1001D0008FE590E02FE530E0F90120812068FC01F7
:1001E00020830000DF91CF910895CF93DF93CDB7A7
:1001F000DEB781E890E0FC0110820000DF91CF9132
:100200000895CF93DF93CDB7DEB781E080931601D9
:100210000000DF91CF9108951F920F9200905F0030
:100220000F92112400905B000F922F933F934F93F6
:100230005F936F937F938F939F93AF93BF93EF934E
:10024000FF93CF93DF93CDB7DEB7809117019091E5
:100250001801A0911901B0911A010197A109B109E2
:100260008093170190931801A0931901B0931A017C
:100270008091170190911801A0911901B0911A0174
:10028000892B8A2B8B2B91F40E94010180910E0106
:1002900090910F01A0911001B0911101809317016D
:1002A00090931801A0931901B0931A010000DF91F7
:1002B000CF91FF91EF91BF91AF919F918F917F91DE
:1002C0006F915F914F913F912F910F9000925B0042
:1002D0000F9000925F000F901F901895CF93DF93BF
:1002E000CDB7DEB780911D0190911E01823091053E
:1002F00009F445C08330910528F4009759F001971F
:1003000081F0ADC08330910509F467C0049709F40A
:1003100086C0A5C081E090E090931E0180931D01EE
:10032000AAC080E290E0FC018081882F90E081707B
:100330009927892B39F483E090E090931E018093F4
:100340001D0192C080E290E0FC018081882F90E046
:1003500081709927892B09F487C080911C01823014
:1003600039F482E090E090931E0180931D017CC0DF
:1003700081E090E090931E0180931D0175C080E2A2
:1003800090E0FC018081882F90E081709927892B73
:1003900039F483E090E090931E0180931D0166C0C4
:1003A00080E290E0FC018081882F90E081709927A5
:1003B000892B09F45BC080911C01882339F481E00A
:1003C00090E090931E0180931D0150C082E090E068
:1003D00090931E0180931D0149C080E290E0FC01D2
:1003E0008081882F90E081709927892B39F483E0F0
:1003F00090E090931E0180931D013AC080E290E04E
:10040000FC018081882F90E081709927892B81F1F0
:1004100084E090E090931E0180931D0129C080E24A
:1004200090E0FC018081882F90E081709927892BD2
:1004300029F410921E0110921D011CC080E290E070
:10044000FC018081882F90E081709927892B91F0A1
:1004500084E090E090931E0180931D010BC01092E8
:100460001E0110921D0107C0000005C0000003C05E
:10047000000001C0000080911D0190911E0182309A
:10048000910519F183309105A0F5009719F00197B6
:1004900041F034C081E080931B0181E080931C0116
:1004A0002DC080911C01882F90E08E5E9E4FFC0134
:1004B000808180931B0180911C018230E0F4809147
:1004C0001C018F5F80931C0116C080911C01882F36
:1004D00090E08E5E9E4FFC01808180931B01809195
:1004E0001C01882351F080911C01815080931C01D4
:1004F00004C0000003C0000001C000000000DF9144
:10050000CF910895CF93DF93CDB7DEB781E290E02E
:10051000FC01108282E290E02FEFFC01208384E254
:1005200090E02FEFFC01208385E290E0FC01108237
:1005300010921E0110921D016CE271E080E090E0CB
:100540000E9490000E94BE000E946E0185E290E031
:1005500020911B01FC01208300008091160188235B
:0C056000E1F310921601F0CFF894FFCFE9
:10056C000000000200000000670000000000010015
:06057C0000000102040072
:00000001FF
